{"abi":[{"type":"function","name":"DAI","inputs":[],"outputs":[{"name":"","type":"address","internalType":"address"}],"stateMutability":"view"},{"type":"function","name":"LINK","inputs":[],"outputs":[{"name":"","type":"address","internalType":"address"}],"stateMutability":"view"},{"type":"function","name":"UNI","inputs":[],"outputs":[{"name":"","type":"address","internalType":"address"}],"stateMutability":"view"},{"type":"function","name":"UNISWAP_V2_ROUTER","inputs":[],"outputs":[{"name":"","type":"address","internalType":"address"}],"stateMutability":"view"},{"type":"function","name":"USDC","inputs":[],"outputs":[{"name":"","type":"address","internalType":"address"}],"stateMutability":"view"},{"type":"function","name":"USDT","inputs":[],"outputs":[{"name":"","type":"address","internalType":"address"}],"stateMutability":"view"},{"type":"function","name":"WBTC","inputs":[],"outputs":[{"name":"","type":"address","internalType":"address"}],"stateMutability":"view"},{"type":"function","name":"WETH","inputs":[],"outputs":[{"name":"","type":"address","internalType":"address"}],"stateMutability":"view"}],"bytecode":{"object":"0x6102d361004d600b8282823980515f1a6073146041577f4e487b71000000000000000000000000000000000000000000000000000000005f525f60045260245ffd5b305f52607381538281f3fe7300000000000000000000000000000000000000003014608060405260043610610091575f3560e01c8063a82ed9ec11610064578063a82ed9ec1461010d578063ad5c46481461012b578063c54e44eb14610149578063e0bab4c41461016757610091565b80631b6b6d23146100955780634dede3de146100b3578063541bcb76146100d157806389a30271146100ef575b5f5ffd5b61009d610185565b6040516100aa9190610284565b60405180910390f35b6100bb61019d565b6040516100c89190610284565b60405180910390f35b6100d96101b5565b6040516100e69190610284565b60405180910390f35b6100f76101cd565b6040516101049190610284565b60405180910390f35b6101156101e5565b6040516101229190610284565b60405180910390f35b6101336101fd565b6040516101409190610284565b60405180910390f35b610151610215565b60405161015e9190610284565b60405180910390f35b61016f61022d565b60405161017c9190610284565b60405180910390f35b73514910771af9ca656af840dff83e8264ecf986ca81565b732260fac5e5542a773aa44fbcfedf7c193bc2c59981565b731f9840a85d5af5bf1d1762f925bdaddc4201f98481565b73a0b86991c6218b36c1d19d4a2e9eb0ce3606eb4881565b737a250d5630b4cf539739df2c5dacb4c659f2488d81565b73c02aaa39b223fe8d0a0e5c4f27ead9083c756cc281565b73dac17f958d2ee523a2206206994597c13d831ec781565b736b175474e89094c44da98b954eedeac495271d0f81565b5f73ffffffffffffffffffffffffffffffffffffffff82169050919050565b5f61026e82610245565b9050919050565b61027e81610264565b82525050565b5f6020820190506102975f830184610275565b9291505056fea2646970667358221220e98fefd191e0868d488ec5b3c9b7af42c77f662421807b26ee249a005ef4539664736f6c634300081e0033","linkReferences":{}},"methodIdentifiers":{"DAI()":"e0bab4c4","LINK()":"1b6b6d23","UNI()":"541bcb76","UNISWAP_V2_ROUTER()":"a82ed9ec","USDC()":"89a30271","USDT()":"c54e44eb","WBTC()":"4dede3de","WETH()":"ad5c4648"},"id":22}