{"abi":[{"type":"function","name":"approve","inputs":[{"name":"to","type":"address","internalType":"address"},{"name":"tokenId","type":"uint256","internalType":"uint256"}],"outputs":[],"stateMutability":"nonpayable"},{"type":"function","name":"balanceOf","inputs":[{"name":"owner","type":"address","internalType":"address"}],"outputs":[{"name":"","type":"uint256","internalType":"uint256"}],"stateMutability":"view"},{"type":"function","name":"getApproved","inputs":[{"name":"tokenId","type":"uint256","internalType":"uint256"}],"outputs":[{"name":"","type":"address","internalType":"address"}],"stateMutability":"view"},{"type":"function","name":"isApprovedForAll","inputs":[{"name":"owner","type":"address","internalType":"address"},{"name":"operator","type":"address","internalType":"address"}],"outputs":[{"name":"","type":"bool","internalType":"bool"}],"stateMutability":"view"},{"type":"function","name":"mint","inputs":[{"name":"to","type":"address","internalType":"address"}],"outputs":[{"name":"","type":"uint256","internalType":"uint256"}],"stateMutability":"nonpayable"},{"type":"function","name":"name","inputs":[],"outputs":[{"name":"","type":"string","internalType":"string"}],"stateMutability":"view"},{"type":"function","name":"ownerOf","inputs":[{"name":"tokenId","type":"uint256","internalType":"uint256"}],"outputs":[{"name":"","type":"address","internalType":"address"}],"stateMutability":"view"},{"type":"function","name":"safeTransferFrom","inputs":[{"name":"from","type":"address","internalType":"address"},{"name":"to","type":"address","internalType":"address"},{"name":"tokenId","type":"uint256","internalType":"uint256"}],"outputs":[],"stateMutability":"nonpayable"},{"type":"function","name":"safeTransferFrom","inputs":[{"name":"from","type":"address","internalType":"address"},{"name":"to","type":"address","internalType":"address"},{"name":"tokenId","type":"uint256","internalType":"uint256"},{"name":"data","type":"bytes","internalType":"bytes"}],"outputs":[],"stateMutability":"nonpayable"},{"type":"function","name":"setApprovalForAll","inputs":[{"name":"operator","type":"address","internalType":"address"},{"name":"approved","type":"bool","internalType":"bool"}],"outputs":[],"stateMutability":"nonpayable"},{"type":"function","name":"supportsInterface","inputs":[{"name":"interfaceId","type":"bytes4","internalType":"bytes4"}],"outputs":[{"name":"","type":"bool","internalType":"bool"}],"stateMutability":"view"},{"type":"function","name":"symbol","inputs":[],"outputs":[{"name":"","type":"string","internalType":"string"}],"stateMutability":"view"},{"type":"function","name":"tokenURI","inputs":[{"name":"tokenId","type":"uint256","internalType":"uint256"}],"outputs":[{"name":"","type":"string","internalType":"string"}],"stateMutability":"view"},{"type":"function","name":"transferFrom","inputs":[{"name":"from","type":"address","internalType":"address"},{"name":"to","type":"address","internalType":"address"},{"name":"tokenId","type":"uint256","internalType":"uint256"}],"outputs":[],"stateMutability":"nonpayable"},{"type":"event","name":"Approval","inputs":[{"name":"owner","type":"address","indexed":true,"internalType":"address"},{"name":"approved","type":"address","indexed":true,"internalType":"address"},{"name":"tokenId","type":"uint256","indexed":true,"internalType":"uint256"}],"anonymous":false},{"type":"event","name":"ApprovalForAll","inputs":[{"name":"owner","type":"address","indexed":true,"internalType":"address"},{"name":"operator","type":"address","indexed":true,"internalType":"address"},{"name":"approved","type":"bool","indexed":false,"internalType":"bool"}],"anonymous":false},{"type":"event","name":"Transfer","inputs":[{"name":"from","type":"address","indexed":true,"internalType":"address"},{"name":"to","type":"address","indexed":true,"internalType":"address"},{"name":"tokenId","type":"uint256","indexed":true,"internalType":"uint256"}],"anonymous":false},{"type":"error","name":"ApprovalToCaller","inputs":[]},{"type":"error","name":"ApprovalToCurrentOwner","inputs":[]},{"type":"error","name":"IncorrectOwner","inputs":[]},{"type":"error","name":"NonexistentToken","inputs":[{"name":"tokenId","type":"uint256","internalType":"uint256"}]},{"type":"error","name":"NotOwnerOrApproved","inputs":[]},{"type":"error","name":"TokenAlreadyMinted","inputs":[{"name":"tokenId","type":"uint256","internalType":"uint256"}]},{"type":"error","name":"TransferToNonERC721Receiver","inputs":[]},{"type":"error","name":"ZeroAddress","inputs":[]}],"bytecode":{"object":"0x60806040526040518060400160405280601081526020017f44796e616d69632054696d65204e4654000000000000000000000000000000008152505f908161004791906102db565b506040518060400160405280600581526020017f4454494d450000000000000000000000000000000000000000000000000000008152506001908161008c91906102db565b50348015610098575f5ffd5b506103aa565b5f81519050919050565b7f4e487b71000000000000000000000000000000000000000000000000000000005f52604160045260245ffd5b7f4e487b71000000000000000000000000000000000000000000000000000000005f52602260045260245ffd5b5f600282049050600182168061011957607f821691505b60208210810361012c5761012b6100d5565b5b50919050565b5f819050815f5260205f209050919050565b5f6020601f8301049050919050565b5f82821b905092915050565b5f6008830261018e7fffffffffffffffffffffffffffffffffffffffffffffffffffffffffffffffff82610153565b6101988683610153565b95508019841693508086168417925050509392505050565b5f819050919050565b5f819050919050565b5f6101dc6101d76101d2846101b0565b6101b9565b6101b0565b9050919050565b5f819050919050565b6101f5836101c2565b610209610201826101e3565b84845461015f565b825550505050565b5f5f905090565b610220610211565b61022b8184846101ec565b505050565b5b8181101561024e576102435f82610218565b600181019050610231565b5050565b601f8211156102935761026481610132565b61026d84610144565b8101602085101561027c578190505b61029061028885610144565b830182610230565b50505b505050565b5f82821c905092915050565b5f6102b35f1984600802610298565b1980831691505092915050565b5f6102cb83836102a4565b9150826002028217905092915050565b6102e48261009e565b67ffffffffffffffff8111156102fd576102fc6100a8565b5b6103078254610102565b610312828285610252565b5f60209050601f831160018114610343575f8415610331578287015190505b61033b85826102c0565b8655506103a2565b601f19841661035186610132565b5f5b8281101561037857848901518255600182019150602085019450602081019050610353565b868310156103955784890151610391601f8916826102a4565b8355505b6001600288020188555050505b505050505050565b613241806103b75f395ff3fe608060405234801561000f575f5ffd5b50600436106100e8575f3560e01c80636a6278421161008a578063a22cb46511610064578063a22cb4651461026c578063b88d4fde14610288578063c87b56dd146102a4578063e985e9c5146102d4576100e8565b80636a627842146101ee57806370a082311461021e57806395d89b411461024e576100e8565b8063095ea7b3116100c6578063095ea7b31461016a57806323b872dd1461018657806342842e0e146101a25780636352211e146101be576100e8565b806301ffc9a7146100ec57806306fdde031461011c578063081812fc1461013a575b5f5ffd5b610106600480360381019061010191906117ad565b610304565b60405161011391906117f2565b60405180910390f35b61012461043d565b604051610131919061187b565b60405180910390f35b610154600480360381019061014f91906118ce565b6104cc565b6040516101619190611938565b60405180910390f35b610184600480360381019061017f919061197b565b61054f565b005b6101a0600480360381019061019b91906119b9565b610649565b005b6101bc60048036038101906101b791906119b9565b610699565b005b6101d860048036038101906101d391906118ce565b6106b8565b6040516101e59190611938565b60405180910390f35b61020860048036038101906102039190611a09565b610766565b6040516102159190611a43565b60405180910390f35b61023860048036038101906102339190611a09565b610797565b6040516102459190611a43565b60405180910390f35b610256610842565b604051610263919061187b565b60405180910390f35b61028660048036038101906102819190611a86565b6108d2565b005b6102a2600480360381019061029d9190611bf0565b610a2f565b005b6102be60048036038101906102b991906118ce565b610a81565b6040516102cb919061187b565b60405180910390f35b6102ee60048036038101906102e99190611c70565b610c07565b6040516102fb91906117f2565b60405180910390f35b5f7f80ac58cd000000000000000000000000000000000000000000000000000000007bffffffffffffffffffffffffffffffffffffffffffffffffffffffff1916827bffffffffffffffffffffffffffffffffffffffffffffffffffffffff191614806103ce57507f5b5e139f000000000000000000000000000000000000000000000000000000007bffffffffffffffffffffffffffffffffffffffffffffffffffffffff1916827bffffffffffffffffffffffffffffffffffffffffffffffffffffffff1916145b8061043657507f01ffc9a7000000000000000000000000000000000000000000000000000000007bffffffffffffffffffffffffffffffffffffffffffffffffffffffff1916827bffffffffffffffffffffffffffffffffffffffffffffffffffffffff1916145b9050919050565b60605f805461044b90611cdb565b80601f016020809104026020016040519081016040528092919081815260200182805461047790611cdb565b80156104c25780601f10610499576101008083540402835291602001916104c2565b820191905f5260205f20905b8154815290600101906020018083116104a557829003601f168201915b5050505050905090565b5f6104d682610c95565b61051757816040517f2f4163e700000000000000000000000000000000000000000000000000000000815260040161050e9190611a43565b60405180910390fd5b60045f8381526020019081526020015f205f9054906101000a900473ffffffffffffffffffffffffffffffffffffffff169050919050565b5f610559826106b8565b90508073ffffffffffffffffffffffffffffffffffffffff168373ffffffffffffffffffffffffffffffffffffffff16036105c0576040517f943f7b8c00000000000000000000000000000000000000000000000000000000815260040160405180910390fd5b8073ffffffffffffffffffffffffffffffffffffffff163373ffffffffffffffffffffffffffffffffffffffff161415801561060357506106018133610c07565b155b1561063a576040517fdb1453ce00000000000000000000000000000000000000000000000000000000815260040160405180910390fd5b6106448383610cfd565b505050565b6106533382610db3565b610689576040517fdb1453ce00000000000000000000000000000000000000000000000000000000815260040160405180910390fd5b610694838383610e91565b505050565b6106b383838360405180602001604052805f815250610a2f565b505050565b5f5f60025f8481526020019081526020015f205f9054906101000a900473ffffffffffffffffffffffffffffffffffffffff1690505f73ffffffffffffffffffffffffffffffffffffffff168173ffffffffffffffffffffffffffffffffffffffff160361075d57826040517f2f4163e70000000000000000000000000000000000000000000000000000000081526004016107549190611a43565b60405180910390fd5b80915050919050565b5f5f600654905060065f81548092919061077f90611d38565b919050555061078e83826110c0565b80915050919050565b5f5f73ffffffffffffffffffffffffffffffffffffffff168273ffffffffffffffffffffffffffffffffffffffff16036107fd576040517fd92e233d00000000000000000000000000000000000000000000000000000000815260040160405180910390fd5b60035f8373ffffffffffffffffffffffffffffffffffffffff1673ffffffffffffffffffffffffffffffffffffffff1681526020019081526020015f20549050919050565b60606001805461085190611cdb565b80601f016020809104026020016040519081016040528092919081815260200182805461087d90611cdb565b80156108c85780601f1061089f576101008083540402835291602001916108c8565b820191905f5260205f20905b8154815290600101906020018083116108ab57829003601f168201915b5050505050905090565b3373ffffffffffffffffffffffffffffffffffffffff168273ffffffffffffffffffffffffffffffffffffffff1603610937576040517f8314654c00000000000000000000000000000000000000000000000000000000815260040160405180910390fd5b8060055f3373ffffffffffffffffffffffffffffffffffffffff1673ffffffffffffffffffffffffffffffffffffffff1681526020019081526020015f205f8473ffffffffffffffffffffffffffffffffffffffff1673ffffffffffffffffffffffffffffffffffffffff1681526020019081526020015f205f6101000a81548160ff0219169083151502179055508173ffffffffffffffffffffffffffffffffffffffff163373ffffffffffffffffffffffffffffffffffffffff167f17307eab39ab6107e8899845ad3d59bd9653f200f220920489ca2b5937696c3183604051610a2391906117f2565b60405180910390a35050565b610a393383610db3565b610a6f576040517fdb1453ce00000000000000000000000000000000000000000000000000000000815260040160405180910390fd5b610a7b84848484611270565b50505050565b6060610a8c82610c95565b610acd57816040517f2f4163e7000000000000000000000000000000000000000000000000000000008152600401610ac49190611a43565b60405180910390fd5b5f4290505f6201518082610ae19190611dac565b90505f610e1082610af29190611ddc565b90505f603c610e1084610b059190611dac565b610b0f9190611ddc565b90505f603c84610b1f9190611dac565b90505f610b2b846112c3565b610b34846112c3565b610b3d846112c3565b610b468b61130e565b610b4f8a61130e565b604051602001610b639594939291906128a0565b60405160208183030381529060405290505f610b7e8961130e565b610b8783611467565b610b908761130e565b610b998761130e565b610ba28761130e565b610bab8c61130e565b604051602001610bc096959493929190612e23565b6040516020818303038152906040529050610bda81611467565b604051602001610bea9190612f69565b604051602081830303815290604052975050505050505050919050565b5f60055f8473ffffffffffffffffffffffffffffffffffffffff1673ffffffffffffffffffffffffffffffffffffffff1681526020019081526020015f205f8373ffffffffffffffffffffffffffffffffffffffff1673ffffffffffffffffffffffffffffffffffffffff1681526020019081526020015f205f9054906101000a900460ff16905092915050565b5f5f73ffffffffffffffffffffffffffffffffffffffff1660025f8481526020019081526020015f205f9054906101000a900473ffffffffffffffffffffffffffffffffffffffff1673ffffffffffffffffffffffffffffffffffffffff1614159050919050565b8160045f8381526020019081526020015f205f6101000a81548173ffffffffffffffffffffffffffffffffffffffff021916908373ffffffffffffffffffffffffffffffffffffffff160217905550808273ffffffffffffffffffffffffffffffffffffffff16610d6d836106b8565b73ffffffffffffffffffffffffffffffffffffffff167f8c5be1e5ebec7d5bd14f71427d1e84f3dd0314c0f7b2291e5b200ac8c7c3b92560405160405180910390a45050565b5f610dbd82610c95565b610dfe57816040517f2f4163e7000000000000000000000000000000000000000000000000000000008152600401610df59190611a43565b60405180910390fd5b5f610e08836106b8565b90508073ffffffffffffffffffffffffffffffffffffffff168473ffffffffffffffffffffffffffffffffffffffff161480610e7757508373ffffffffffffffffffffffffffffffffffffffff16610e5f846104cc565b73ffffffffffffffffffffffffffffffffffffffff16145b80610e885750610e878185610c07565b5b91505092915050565b8273ffffffffffffffffffffffffffffffffffffffff16610eb1826106b8565b73ffffffffffffffffffffffffffffffffffffffff1614610efe576040517f3a6bbed300000000000000000000000000000000000000000000000000000000815260040160405180910390fd5b5f73ffffffffffffffffffffffffffffffffffffffff168273ffffffffffffffffffffffffffffffffffffffff1603610f63576040517fd92e233d00000000000000000000000000000000000000000000000000000000815260040160405180910390fd5b610f6d5f82610cfd565b60035f8473ffffffffffffffffffffffffffffffffffffffff1673ffffffffffffffffffffffffffffffffffffffff1681526020019081526020015f205f815480929190610fba90612f8a565b919050555060035f8373ffffffffffffffffffffffffffffffffffffffff1673ffffffffffffffffffffffffffffffffffffffff1681526020019081526020015f205f81548092919061100c90611d38565b91905055508160025f8381526020019081526020015f205f6101000a81548173ffffffffffffffffffffffffffffffffffffffff021916908373ffffffffffffffffffffffffffffffffffffffff160217905550808273ffffffffffffffffffffffffffffffffffffffff168473ffffffffffffffffffffffffffffffffffffffff167fddf252ad1be2c89b69c2b068fc378daa952ba7f163c4a11628f55a4df523b3ef60405160405180910390a4505050565b5f73ffffffffffffffffffffffffffffffffffffffff168273ffffffffffffffffffffffffffffffffffffffff1603611125576040517fd92e233d00000000000000000000000000000000000000000000000000000000815260040160405180910390fd5b61112e81610c95565b1561117057806040517f8b474e540000000000000000000000000000000000000000000000000000000081526004016111679190611a43565b60405180910390fd5b60035f8373ffffffffffffffffffffffffffffffffffffffff1673ffffffffffffffffffffffffffffffffffffffff1681526020019081526020015f205f8154809291906111bd90611d38565b91905055508160025f8381526020019081526020015f205f6101000a81548173ffffffffffffffffffffffffffffffffffffffff021916908373ffffffffffffffffffffffffffffffffffffffff160217905550808273ffffffffffffffffffffffffffffffffffffffff165f73ffffffffffffffffffffffffffffffffffffffff167fddf252ad1be2c89b69c2b068fc378daa952ba7f163c4a11628f55a4df523b3ef60405160405180910390a45050565b61127b848484610e91565b611287848484846115da565b6112bd576040517ff5cd1f5d00000000000000000000000000000000000000000000000000000000815260040160405180910390fd5b50505050565b6060600a8210156112fd576112d78261130e565b6040516020016112e79190612ffb565b6040516020818303038152906040529050611309565b6113068261130e565b90505b919050565b60605f8203611354576040518060400160405280600181526020017f30000000000000000000000000000000000000000000000000000000000000008152509050611462565b5f8290505f5b5f821461138357808061136c90611d38565b915050600a8261137c9190611ddc565b915061135a565b5f8167ffffffffffffffff81111561139e5761139d611acc565b5b6040519080825280601f01601f1916602001820160405280156113d05781602001600182028036833780820191505090505b5090505b5f851461145b576001826113e8919061301c565b9150600a856113f79190611dac565b6030611403919061304f565b60f81b81838151811061141957611418613082565b5b60200101907effffffffffffffffffffffffffffffffffffffffffffffffffffffffffffff191690815f1a905350600a856114549190611ddc565b94506113d4565b8093505050505b919050565b60605f8251036114875760405180602001604052805f81525090506115d5565b5f6040518060600160405280604081526020016131cc6040913990505f6003600285516114b4919061304f565b6114be9190611ddc565b60046114ca91906130af565b90505f6020826114da919061304f565b67ffffffffffffffff8111156114f3576114f2611acc565b5b6040519080825280601f01601f1916602001820160405280156115255781602001600182028036833780820191505090505b509050600183018586518101602084015b81831015611591576003830192508251603f8160121c168501518253600182019150603f81600c1c168501518253600182019150603f8160061c168501518253600182019150603f8116850151825360018201915050611536565b6003895106600181146115ab57600281146115bb576115c6565b613d3d60f01b60028303526115c6565b603d60f81b60018303525b50858552505050508093505050505b919050565b5f5f8473ffffffffffffffffffffffffffffffffffffffff163b111561173a578373ffffffffffffffffffffffffffffffffffffffff1663150b7a02338786866040518563ffffffff1660e01b81526004016116399493929190613142565b6020604051808303815f875af192505050801561167457506040513d601f19601f8201168201806040525081019061167191906131a0565b60015b6116ea573d805f81146116a2576040519150601f19603f3d011682016040523d82523d5f602084013e6116a7565b606091505b505f8151036116e2576040517ff5cd1f5d00000000000000000000000000000000000000000000000000000000815260040160405180910390fd5b805181602001fd5b63150b7a0260e01b7bffffffffffffffffffffffffffffffffffffffffffffffffffffffff1916817bffffffffffffffffffffffffffffffffffffffffffffffffffffffff19161491505061173f565b600190505b949350505050565b5f604051905090565b5f5ffd5b5f5ffd5b5f7fffffffff0000000000000000000000000000000000000000000000000000000082169050919050565b61178c81611758565b8114611796575f5ffd5b50565b5f813590506117a781611783565b92915050565b5f602082840312156117c2576117c1611750565b5b5f6117cf84828501611799565b91505092915050565b5f8115159050919050565b6117ec816117d8565b82525050565b5f6020820190506118055f8301846117e3565b92915050565b5f81519050919050565b5f82825260208201905092915050565b8281835e5f83830152505050565b5f601f19601f8301169050919050565b5f61184d8261180b565b6118578185611815565b9350611867818560208601611825565b61187081611833565b840191505092915050565b5f6020820190508181035f8301526118938184611843565b905092915050565b5f819050919050565b6118ad8161189b565b81146118b7575f5ffd5b50565b5f813590506118c8816118a4565b92915050565b5f602082840312156118e3576118e2611750565b5b5f6118f0848285016118ba565b91505092915050565b5f73ffffffffffffffffffffffffffffffffffffffff82169050919050565b5f611922826118f9565b9050919050565b61193281611918565b82525050565b5f60208201905061194b5f830184611929565b92915050565b61195a81611918565b8114611964575f5ffd5b50565b5f8135905061197581611951565b92915050565b5f5f6040838503121561199157611990611750565b5b5f61199e85828601611967565b92505060206119af858286016118ba565b9150509250929050565b5f5f5f606084860312156119d0576119cf611750565b5b5f6119dd86828701611967565b93505060206119ee86828701611967565b92505060406119ff868287016118ba565b9150509250925092565b5f60208284031215611a1e57611a1d611750565b5b5f611a2b84828501611967565b91505092915050565b611a3d8161189b565b82525050565b5f602082019050611a565f830184611a34565b92915050565b611a65816117d8565b8114611a6f575f5ffd5b50565b5f81359050611a8081611a5c565b92915050565b5f5f60408385031215611a9c57611a9b611750565b5b5f611aa985828601611967565b9250506020611aba85828601611a72565b9150509250929050565b5f5ffd5b5f5ffd5b7f4e487b71000000000000000000000000000000000000000000000000000000005f52604160045260245ffd5b611b0282611833565b810181811067ffffffffffffffff82111715611b2157611b20611acc565b5b80604052505050565b5f611b33611747565b9050611b3f8282611af9565b919050565b5f67ffffffffffffffff821115611b5e57611b5d611acc565b5b611b6782611833565b9050602081019050919050565b828183375f83830152505050565b5f611b94611b8f84611b44565b611b2a565b905082815260208101848484011115611bb057611baf611ac8565b5b611bbb848285611b74565b509392505050565b5f82601f830112611bd757611bd6611ac4565b5b8135611be7848260208601611b82565b91505092915050565b5f5f5f5f60808587031215611c0857611c07611750565b5b5f611c1587828801611967565b9450506020611c2687828801611967565b9350506040611c37878288016118ba565b925050606085013567ffffffffffffffff811115611c5857611c57611754565b5b611c6487828801611bc3565b91505092959194509250565b5f5f60408385031215611c8657611c85611750565b5b5f611c9385828601611967565b9250506020611ca485828601611967565b9150509250929050565b7f4e487b71000000000000000000000000000000000000000000000000000000005f52602260045260245ffd5b5f6002820490506001821680611cf257607f821691505b602082108103611d0557611d04611cae565b5b50919050565b7f4e487b71000000000000000000000000000000000000000000000000000000005f52601160045260245ffd5b5f611d428261189b565b91507fffffffffffffffffffffffffffffffffffffffffffffffffffffffffffffffff8203611d7457611d73611d0b565b5b600182019050919050565b7f4e487b71000000000000000000000000000000000000000000000000000000005f52601260045260245ffd5b5f611db68261189b565b9150611dc18361189b565b925082611dd157611dd0611d7f565b5b828206905092915050565b5f611de68261189b565b9150611df18361189b565b925082611e0157611e00611d7f565b5b828204905092915050565b5f81905092915050565b7f3c73766720786d6c6e733d22687474703a2f2f7777772e77332e6f72672f32305f8201527f30302f737667222076696577426f783d223020302034303020343030223e0000602082015250565b5f611e70603e83611e0c565b9150611e7b82611e16565b603e82019050919050565b7f3c646566733e00000000000000000000000000000000000000000000000000005f82015250565b5f611eba600683611e0c565b9150611ec582611e86565b600682019050919050565b7f3c6c696e6561724772616469656e742069643d226267222078313d22302522205f8201527f79313d223025222078323d2231303025222079323d2231303025223e00000000602082015250565b5f611f2a603c83611e0c565b9150611f3582611ed0565b603c82019050919050565b7f3c73746f70206f66667365743d22302522207374796c653d2273746f702d636f5f8201527f6c6f723a23363637656561222f3e000000000000000000000000000000000000602082015250565b5f611f9a602e83611e0c565b9150611fa582611f40565b602e82019050919050565b7f3c73746f70206f66667365743d223130302522207374796c653d2273746f702d5f8201527f636f6c6f723a23373634626132222f3e00000000000000000000000000000000602082015250565b5f61200a603083611e0c565b915061201582611fb0565b603082019050919050565b7f3c2f6c696e6561724772616469656e743e0000000000000000000000000000005f82015250565b5f612054601183611e0c565b915061205f82612020565b601182019050919050565b7f3c66696c7465722069643d22676c6f77223e00000000000000000000000000005f82015250565b5f61209e601283611e0c565b91506120a98261206a565b601282019050919050565b7f3c6665476175737369616e426c757220737464446576696174696f6e3d2233225f8201527f20726573756c743d22636f6c6f726564426c7572222f3e000000000000000000602082015250565b5f61210e603783611e0c565b9150612119826120b4565b603782019050919050565b7f3c66654d657267653e00000000000000000000000000000000000000000000005f82015250565b5f612158600983611e0c565b915061216382612124565b600982019050919050565b7f3c66654d657267654e6f646520696e3d22636f6c6f726564426c7572222f3e005f82015250565b5f6121a2601f83611e0c565b91506121ad8261216e565b601f82019050919050565b7f3c66654d657267654e6f646520696e3d22536f7572636547726170686963222f5f8201527f3e00000000000000000000000000000000000000000000000000000000000000602082015250565b5f612212602183611e0c565b915061221d826121b8565b602182019050919050565b7f3c2f66654d657267653e000000000000000000000000000000000000000000005f82015250565b5f61225c600a83611e0c565b915061226782612228565b600a82019050919050565b7f3c2f66696c7465723e00000000000000000000000000000000000000000000005f82015250565b5f6122a6600983611e0c565b91506122b182612272565b600982019050919050565b7f3c2f646566733e000000000000000000000000000000000000000000000000005f82015250565b5f6122f0600783611e0c565b91506122fb826122bc565b600782019050919050565b7f3c726563742077696474683d2234303022206865696768743d223430302220665f8201527f696c6c3d2275726c2823626729222f3e00000000000000000000000000000000602082015250565b5f612360603083611e0c565b915061236b82612306565b603082019050919050565b7f3c636972636c652063783d22323030222063793d223230302220723d223135305f8201527f222066696c6c3d226e6f6e6522207374726f6b653d227768697465222073747260208201527f6f6b652d77696474683d223222206f7061636974793d22302e33222f3e000000604082015250565b5f6123f6605d83611e0c565b915061240182612376565b605d82019050919050565b7f3c636972636c652063783d22323030222063793d223230302220723d223132305f8201527f222066696c6c3d226e6f6e6522207374726f6b653d227768697465222073747260208201527f6f6b652d77696474683d223122206f7061636974793d22302e32222f3e000000604082015250565b5f61248c605d83611e0c565b91506124978261240c565b605d82019050919050565b7f3c7465787420783d223230302220793d223135302220746578742d616e63686f5f8201527f723d226d6964646c65222066696c6c3d2277686974652220666f6e742d66616d60208201527f696c793d226d6f6e6f73706163652220666f6e742d73697a653d22343822206660408201527f696c7465723d2275726c2823676c6f7729223e00000000000000000000000000606082015250565b5f612548607383611e0c565b9150612553826124a2565b607382019050919050565b5f6125688261180b565b6125728185611e0c565b9350612582818560208601611825565b80840191505092915050565b7f3a000000000000000000000000000000000000000000000000000000000000005f82015250565b5f6125c2600183611e0c565b91506125cd8261258e565b600182019050919050565b7f3c2f746578743e000000000000000000000000000000000000000000000000005f82015250565b5f61260c600783611e0c565b9150612617826125d8565b600782019050919050565b7f3c7465787420783d223230302220793d223138302220746578742d616e63686f5f8201527f723d226d6964646c65222066696c6c3d2277686974652220666f6e742d66616d60208201527f696c793d2273616e732d73657269662220666f6e742d73697a653d223134222060408201527f6f7061636974793d22302e38223e5554433c2f746578743e0000000000000000606082015250565b5f6126c8607883611e0c565b91506126d382612622565b607882019050919050565b7f3c7465787420783d223230302220793d223238302220746578742d616e63686f5f8201527f723d226d6964646c65222066696c6c3d2277686974652220666f6e742d66616d60208201527f696c793d2273616e732d73657269662220666f6e742d73697a653d223136222060408201527f6f7061636974793d22302e39223e426c6f636b2054696d65204e465420230000606082015250565b5f612784607e83611e0c565b915061278f826126de565b607e82019050919050565b7f3c7465787420783d223230302220793d223332302220746578742d616e63686f5f8201527f723d226d6964646c65222066696c6c3d2277686974652220666f6e742d66616d60208201527f696c793d226d6f6e6f73706163652220666f6e742d73697a653d22313222206f60408201527f7061636974793d22302e37223e54696d657374616d703a200000000000000000606082015250565b5f612840607883611e0c565b915061284b8261279a565b607882019050919050565b7f3c2f7376673e00000000000000000000000000000000000000000000000000005f82015250565b5f61288a600683611e0c565b915061289582612856565b600682019050919050565b5f6128aa82611e64565b91506128b582611eae565b91506128c082611f1e565b91506128cb82611f8e565b91506128d682611ffe565b91506128e182612048565b91506128ec82612092565b91506128f782612102565b91506129028261214c565b915061290d82612196565b915061291882612206565b915061292382612250565b915061292e8261229a565b9150612939826122e4565b915061294482612354565b915061294f826123ea565b915061295a82612480565b91506129658261253c565b9150612971828861255e565b915061297c826125b6565b9150612988828761255e565b9150612993826125b6565b915061299f828661255e565b91506129aa82612600565b91506129b5826126bc565b91506129c082612778565b91506129cc828561255e565b91506129d782612600565b91506129e282612834565b91506129ee828461255e565b91506129f982612600565b9150612a048261287e565b91508190509695505050505050565b7f7b226e616d65223a2244796e616d69632054696d65204e4654202300000000005f82015250565b5f612a47601b83611e0c565b9150612a5282612a13565b601b82019050919050565b7f222c0000000000000000000000000000000000000000000000000000000000005f82015250565b5f612a91600283611e0c565b9150612a9c82612a5d565b600282019050919050565b7f226465736372697074696f6e223a22416e206f6e2d636861696e20535647204e5f8201527f4654207468617420646973706c617973207468652063757272656e7420626c6f60208201527f636b636861696e2074696d65222c000000000000000000000000000000000000604082015250565b5f612b27604e83611e0c565b9150612b3282612aa7565b604e82019050919050565b7f22696d616765223a22646174613a696d6167652f7376672b786d6c3b626173655f8201527f36342c0000000000000000000000000000000000000000000000000000000000602082015250565b5f612b97602383611e0c565b9150612ba282612b3d565b602382019050919050565b7f2261747472696275746573223a5b0000000000000000000000000000000000005f82015250565b5f612be1600e83611e0c565b9150612bec82612bad565b600e82019050919050565b7f7b2274726169745f74797065223a22486f7572222c2276616c7565223a0000005f82015250565b5f612c2b601d83611e0c565b9150612c3682612bf7565b601d82019050919050565b7f7d2c0000000000000000000000000000000000000000000000000000000000005f82015250565b5f612c75600283611e0c565b9150612c8082612c41565b600282019050919050565b7f7b2274726169745f74797065223a224d696e757465222c2276616c7565223a005f82015250565b5f612cbf601f83611e0c565b9150612cca82612c8b565b601f82019050919050565b7f7b2274726169745f74797065223a225365636f6e64222c2276616c7565223a005f82015250565b5f612d09601f83611e0c565b9150612d1482612cd5565b601f82019050919050565b7f7b2274726169745f74797065223a2254696d657374616d70222c2276616c75655f8201527f223a000000000000000000000000000000000000000000000000000000000000602082015250565b5f612d79602283611e0c565b9150612d8482612d1f565b602282019050919050565b7f7d000000000000000000000000000000000000000000000000000000000000005f82015250565b5f612dc3600183611e0c565b9150612dce82612d8f565b600182019050919050565b7f5d7d0000000000000000000000000000000000000000000000000000000000005f82015250565b5f612e0d600283611e0c565b9150612e1882612dd9565b600282019050919050565b5f612e2d82612a3b565b9150612e39828961255e565b9150612e4482612a85565b9150612e4f82612b1b565b9150612e5a82612b8b565b9150612e66828861255e565b9150612e7182612a85565b9150612e7c82612bd5565b9150612e8782612c1f565b9150612e93828761255e565b9150612e9e82612c69565b9150612ea982612cb3565b9150612eb5828661255e565b9150612ec082612c69565b9150612ecb82612cfd565b9150612ed7828561255e565b9150612ee282612c69565b9150612eed82612d6d565b9150612ef9828461255e565b9150612f0482612db7565b9150612f0f82612e01565b9150819050979650505050505050565b7f646174613a6170706c69636174696f6e2f6a736f6e3b6261736536342c0000005f82015250565b5f612f53601d83611e0c565b9150612f5e82612f1f565b601d82019050919050565b5f612f7382612f47565b9150612f7f828461255e565b915081905092915050565b5f612f948261189b565b91505f8203612fa657612fa5611d0b565b5b600182039050919050565b7f30000000000000000000000000000000000000000000000000000000000000005f82015250565b5f612fe5600183611e0c565b9150612ff082612fb1565b600182019050919050565b5f61300582612fd9565b9150613011828461255e565b915081905092915050565b5f6130268261189b565b91506130318361189b565b925082820390508181111561304957613048611d0b565b5b92915050565b5f6130598261189b565b91506130648361189b565b925082820190508082111561307c5761307b611d0b565b5b92915050565b7f4e487b71000000000000000000000000000000000000000000000000000000005f52603260045260245ffd5b5f6130b98261189b565b91506130c48361189b565b92508282026130d28161189b565b915082820484148315176130e9576130e8611d0b565b5b5092915050565b5f81519050919050565b5f82825260208201905092915050565b5f613114826130f0565b61311e81856130fa565b935061312e818560208601611825565b61313781611833565b840191505092915050565b5f6080820190506131555f830187611929565b6131626020830186611929565b61316f6040830185611a34565b8181036060830152613181818461310a565b905095945050505050565b5f8151905061319a81611783565b92915050565b5f602082840312156131b5576131b4611750565b5b5f6131c28482850161318c565b9150509291505056fe4142434445464748494a4b4c4d4e4f505152535455565758595a6162636465666768696a6b6c6d6e6f707172737475767778797a303132333435363738392b2fa2646970667358221220a183e9104569a0bf765a3b1722c34baabf43c52c8e18bacc21d5543d4474945c64736f6c634300081e0033","linkReferences":{}},"methodIdentifiers":{"approve(address,uint256)":"095ea7b3","balanceOf(address)":"70a08231","getApproved(uint256)":"081812fc","isApprovedForAll(address,address)":"e985e9c5","mint(address)":"6a627842","name()":"06fdde03","ownerOf(uint256)":"6352211e","safeTransferFrom(address,address,uint256)":"42842e0e","safeTransferFrom(address,address,uint256,bytes)":"b88d4fde","setApprovalForAll(address,bool)":"a22cb465","supportsInterface(bytes4)":"01ffc9a7","symbol()":"95d89b41","tokenURI(uint256)":"c87b56dd","transferFrom(address,address,uint256)":"23b872dd"},"id":23}