{"abi":[{"type":"constructor","inputs":[{"name":"_vrfCoordinator","type":"address","internalType":"address"},{"name":"_keyHash","type":"bytes32","internalType":"bytes32"},{"name":"_subscriptionId","type":"uint64","internalType":"uint64"},{"name":"_boxPrice","type":"uint256","internalType":"uint256"}],"stateMutability":"nonpayable"},{"type":"receive","stateMutability":"payable"},{"type":"function","name":"addReward","inputs":[{"name":"_rewardType","type":"uint8","internalType":"enum LootBox.RewardType"},{"name":"_tokenAddress","type":"address","internalType":"address"},{"name":"_tokenId","type":"uint256","internalType":"uint256"},{"name":"_amount","type":"uint256","internalType":"uint256"},{"name":"_weight","type":"uint256","internalType":"uint256"}],"outputs":[],"stateMutability":"nonpayable"},{"type":"function","name":"boxPrice","inputs":[],"outputs":[{"name":"","type":"uint256","internalType":"uint256"}],"stateMutability":"view"},{"type":"function","name":"calculateRewardProbability","inputs":[{"name":"rewardIndex","type":"uint256","internalType":"uint256"}],"outputs":[{"name":"","type":"uint256","internalType":"uint256"}],"stateMutability":"view"},{"type":"function","name":"callbackGasLimit","inputs":[],"outputs":[{"name":"","type":"uint32","internalType":"uint32"}],"stateMutability":"view"},{"type":"function","name":"fulfillRandomWords","inputs":[{"name":"requestId","type":"uint256","internalType":"uint256"},{"name":"randomWords","type":"uint256[]","internalType":"uint256[]"}],"outputs":[],"stateMutability":"nonpayable"},{"type":"function","name":"getReward","inputs":[{"name":"index","type":"uint256","internalType":"uint256"}],"outputs":[{"name":"rewardType","type":"uint8","internalType":"enum LootBox.RewardType"},{"name":"tokenAddress","type":"address","internalType":"address"},{"name":"tokenId","type":"uint256","internalType":"uint256"},{"name":"amount","type":"uint256","internalType":"uint256"},{"name":"weight","type":"uint256","internalType":"uint256"},{"name":"active","type":"bool","internalType":"bool"}],"stateMutability":"view"},{"type":"function","name":"getRewardCount","inputs":[],"outputs":[{"name":"","type":"uint256","internalType":"uint256"}],"stateMutability":"view"},{"type":"function","name":"keyHash","inputs":[],"outputs":[{"name":"","type":"bytes32","internalType":"bytes32"}],"stateMutability":"view"},{"type":"function","name":"onERC1155BatchReceived","inputs":[{"name":"","type":"address","internalType":"address"},{"name":"","type":"address","internalType":"address"},{"name":"","type":"uint256[]","internalType":"uint256[]"},{"name":"","type":"uint256[]","internalType":"uint256[]"},{"name":"","type":"bytes","internalType":"bytes"}],"outputs":[{"name":"","type":"bytes4","internalType":"bytes4"}],"stateMutability":"pure"},{"type":"function","name":"onERC1155Received","inputs":[{"name":"","type":"address","internalType":"address"},{"name":"","type":"address","internalType":"address"},{"name":"","type":"uint256","internalType":"uint256"},{"name":"","type":"uint256","internalType":"uint256"},{"name":"","type":"bytes","internalType":"bytes"}],"outputs":[{"name":"","type":"bytes4","internalType":"bytes4"}],"stateMutability":"pure"},{"type":"function","name":"onERC721Received","inputs":[{"name":"","type":"address","internalType":"address"},{"name":"","type":"address","internalType":"address"},{"name":"","type":"uint256","internalType":"uint256"},{"name":"","type":"bytes","internalType":"bytes"}],"outputs":[{"name":"","type":"bytes4","internalType":"bytes4"}],"stateMutability":"pure"},{"type":"function","name":"openBox","inputs":[],"outputs":[],"stateMutability":"payable"},{"type":"function","name":"owner","inputs":[],"outputs":[{"name":"","type":"address","internalType":"address"}],"stateMutability":"view"},{"type":"function","name":"pendingRequests","inputs":[{"name":"","type":"uint256","internalType":"uint256"}],"outputs":[{"name":"user","type":"address","internalType":"address"},{"name":"fulfilled","type":"bool","internalType":"bool"}],"stateMutability":"view"},{"type":"function","name":"requestConfirmations","inputs":[],"outputs":[{"name":"","type":"uint16","internalType":"uint16"}],"stateMutability":"view"},{"type":"function","name":"rewards","inputs":[{"name":"","type":"uint256","internalType":"uint256"}],"outputs":[{"name":"rewardType","type":"uint8","internalType":"enum LootBox.RewardType"},{"name":"tokenAddress","type":"address","internalType":"address"},{"name":"tokenId","type":"uint256","internalType":"uint256"},{"name":"amount","type":"uint256","internalType":"uint256"},{"name":"weight","type":"uint256","internalType":"uint256"},{"name":"active","type":"bool","internalType":"bool"}],"stateMutability":"view"},{"type":"function","name":"setBoxPrice","inputs":[{"name":"_boxPrice","type":"uint256","internalType":"uint256"}],"outputs":[],"stateMutability":"nonpayable"},{"type":"function","name":"subscriptionId","inputs":[],"outputs":[{"name":"","type":"uint64","internalType":"uint64"}],"stateMutability":"view"},{"type":"function","name":"toggleReward","inputs":[{"name":"_rewardIndex","type":"uint256","internalType":"uint256"}],"outputs":[],"stateMutability":"nonpayable"},{"type":"function","name":"totalWeight","inputs":[],"outputs":[{"name":"","type":"uint256","internalType":"uint256"}],"stateMutability":"view"},{"type":"function","name":"transferOwnership","inputs":[{"name":"newOwner","type":"address","internalType":"address"}],"outputs":[],"stateMutability":"nonpayable"},{"type":"function","name":"vrfCoordinator","inputs":[],"outputs":[{"name":"","type":"address","internalType":"contract VRFCoordinatorV2Interface"}],"stateMutability":"view"},{"type":"function","name":"withdraw","inputs":[],"outputs":[],"stateMutability":"nonpayable"},{"type":"event","name":"BoxConfigured","inputs":[{"name":"boxPrice","type":"uint256","indexed":false,"internalType":"uint256"},{"name":"totalWeight","type":"uint256","indexed":false,"internalType":"uint256"}],"anonymous":false},{"type":"event","name":"BoxOpened","inputs":[{"name":"user","type":"address","indexed":true,"internalType":"address"},{"name":"requestId","type":"uint256","indexed":true,"internalType":"uint256"},{"name":"boxPrice","type":"uint256","indexed":false,"internalType":"uint256"}],"anonymous":false},{"type":"event","name":"OwnershipTransferred","inputs":[{"name":"previousOwner","type":"address","indexed":true,"internalType":"address"},{"name":"newOwner","type":"address","indexed":true,"internalType":"address"}],"anonymous":false},{"type":"event","name":"RewardAdded","inputs":[{"name":"rewardType","type":"uint8","indexed":false,"internalType":"enum LootBox.RewardType"},{"name":"tokenAddress","type":"address","indexed":false,"internalType":"address"},{"name":"tokenId","type":"uint256","indexed":false,"internalType":"uint256"},{"name":"amount","type":"uint256","indexed":false,"internalType":"uint256"},{"name":"weight","type":"uint256","indexed":false,"internalType":"uint256"}],"anonymous":false},{"type":"event","name":"RewardGranted","inputs":[{"name":"user","type":"address","indexed":true,"internalType":"address"},{"name":"requestId","type":"uint256","indexed":true,"internalType":"uint256"},{"name":"rewardType","type":"uint8","indexed":false,"internalType":"enum LootBox.RewardType"},{"name":"tokenAddress","type":"address","indexed":false,"internalType":"address"},{"name":"tokenId","type":"uint256","indexed":false,"internalType":"uint256"},{"name":"amount","type":"uint256","indexed":false,"internalType":"uint256"}],"anonymous":false}],"bytecode":{"object":"0x60806040526003600760086101000a81548161ffff021916908361ffff16021790555062030d406007600a6101000a81548163ffffffff021916908363ffffffff160217905550348015610051575f5ffd5b506040516132f13803806132f18339818101604052810190610073919061028c565b335f5f6101000a81548173ffffffffffffffffffffffffffffffffffffffff021916908373ffffffffffffffffffffffffffffffffffffffff1602179055508360055f6101000a81548173ffffffffffffffffffffffffffffffffffffffff021916908373ffffffffffffffffffffffffffffffffffffffff160217905550826006819055508160075f6101000a81548167ffffffffffffffff021916908367ffffffffffffffff160217905550806001819055503373ffffffffffffffffffffffffffffffffffffffff165f73ffffffffffffffffffffffffffffffffffffffff167f8be0079c531659141344cd1fd0a4f28419497f9722a3daafe3b4186f6b6457e060405160405180910390a3505050506102f0565b5f5ffd5b5f73ffffffffffffffffffffffffffffffffffffffff82169050919050565b5f6101b88261018f565b9050919050565b6101c8816101ae565b81146101d2575f5ffd5b50565b5f815190506101e3816101bf565b92915050565b5f819050919050565b6101fb816101e9565b8114610205575f5ffd5b50565b5f81519050610216816101f2565b92915050565b5f67ffffffffffffffff82169050919050565b6102388161021c565b8114610242575f5ffd5b50565b5f815190506102538161022f565b92915050565b5f819050919050565b61026b81610259565b8114610275575f5ffd5b50565b5f8151905061028681610262565b92915050565b5f5f5f5f608085870312156102a4576102a361018b565b5b5f6102b1878288016101d5565b94505060206102c287828801610208565b93505060406102d387828801610245565b92505060606102e487828801610278565b91505092959194509250565b612ff4806102fd5f395ff3fe608060405260043610610143575f3560e01c806396c82e57116100b5578063ca3519ec1161006e578063ca3519ec1461042e578063ccb4f51e1461046a578063f23a6e6114610492578063f2fde38b146104ce578063f301af42146104f6578063f7dbea3e146105375761014a565b806396c82e5714610340578063a3e56fa81461036a578063a648285814610394578063b0fb162f146103be578063bc197c81146103e8578063c2e952c7146104245761014a565b80633c652a9a116101075780633c652a9a146102475780633ccfd60b1461028457806361728f391461029a5780637aadb8e5146102c45780637e7e8eec146102ec5780638da5cb5b146103165761014a565b806309c1ba2e1461014e578063150b7a02146101785780631c4b774b146101b457806324f74697146101f557806338ba46141461021f5761014a565b3661014a57005b5f5ffd5b348015610159575f5ffd5b5061016261055f565b60405161016f9190611b96565b60405180910390f35b348015610183575f5ffd5b5061019e60048036038101906101999190611d89565b610578565b6040516101ab9190611e43565b60405180910390f35b3480156101bf575f5ffd5b506101da60048036038101906101d59190611e5c565b61058b565b6040516101ec96959493929190611f32565b60405180910390f35b348015610200575f5ffd5b50610209610665565b6040516102169190611faf565b60405180910390f35b34801561022a575f5ffd5b506102456004803603810190610240919061208c565b61067b565b005b348015610252575f5ffd5b5061026d60048036038101906102689190611e5c565b610886565b60405161027b9291906120e6565b60405180910390f35b34801561028f575f5ffd5b506102986108d1565b005b3480156102a5575f5ffd5b506102ae610a71565b6040516102bb9190612125565b60405180910390f35b3480156102cf575f5ffd5b506102ea60048036038101906102e59190612161565b610a77565b005b3480156102f7575f5ffd5b50610300610dc4565b60405161030d91906121d8565b60405180910390f35b348015610321575f5ffd5b5061032a610dd0565b60405161033791906121f1565b60405180910390f35b34801561034b575f5ffd5b50610354610df4565b60405161036191906121d8565b60405180910390f35b348015610375575f5ffd5b5061037e610dfa565b60405161038b9190612265565b60405180910390f35b34801561039f575f5ffd5b506103a8610e1f565b6040516103b591906121d8565b60405180910390f35b3480156103c9575f5ffd5b506103d2610e25565b6040516103df919061229a565b60405180910390f35b3480156103f3575f5ffd5b5061040e600480360381019061040991906122b3565b610e39565b60405161041b9190611e43565b60405180910390f35b61042c610e4d565b005b348015610439575f5ffd5b50610454600480360381019061044f9190611e5c565b61116c565b60405161046191906121d8565b60405180910390f35b348015610475575f5ffd5b50610490600480360381019061048b9190611e5c565b61127a565b005b34801561049d575f5ffd5b506104b860048036038101906104b3919061237e565b611433565b6040516104c59190611e43565b60405180910390f35b3480156104d9575f5ffd5b506104f460048036038101906104ef9190612411565b611447565b005b348015610501575f5ffd5b5061051c60048036038101906105179190611e5c565b611604565b60405161052e96959493929190611f32565b60405180910390f35b348015610542575f5ffd5b5061055d60048036038101906105589190611e5c565b611682565b005b60075f9054906101000a900467ffffffffffffffff1681565b5f63150b7a0260e01b9050949350505050565b5f5f5f5f5f5f60038054905087106105d8576040517f08c379a00000000000000000000000000000000000000000000000000000000081526004016105cf90612496565b60405180910390fd5b5f600388815481106105ed576105ec6124b4565b5b905f5260205f2090600502019050805f015f9054906101000a900460ff16815f0160019054906101000a900473ffffffffffffffffffffffffffffffffffffffff16826001015483600201548460030154856004015f9054906101000a900460ff169650965096509650965096505091939550919395565b6007600a9054906101000a900463ffffffff1681565b60055f9054906101000a900473ffffffffffffffffffffffffffffffffffffffff1673ffffffffffffffffffffffffffffffffffffffff163373ffffffffffffffffffffffffffffffffffffffff161461070a576040517f08c379a00000000000000000000000000000000000000000000000000000000081526004016107019061252b565b60405180910390fd5b5f60045f8481526020019081526020015f209050805f0160149054906101000a900460ff161561076f576040517f08c379a000000000000000000000000000000000000000000000000000000000815260040161076690612593565b60405180910390fd5b5f73ffffffffffffffffffffffffffffffffffffffff16815f015f9054906101000a900473ffffffffffffffffffffffffffffffffffffffff1673ffffffffffffffffffffffffffffffffffffffff16036107ff576040517f08c379a00000000000000000000000000000000000000000000000000000000081526004016107f6906125fb565b60405180910390fd5b6001815f0160146101000a81548160ff0219169083151502179055505f600254835f81518110610832576108316124b4565b5b60200260200101516108449190612646565b90505f61085082611757565b905061087f835f015f9054906101000a900473ffffffffffffffffffffffffffffffffffffffff168287611835565b5050505050565b6004602052805f5260405f205f91509050805f015f9054906101000a900473ffffffffffffffffffffffffffffffffffffffff1690805f0160149054906101000a900460ff16905082565b5f5f9054906101000a900473ffffffffffffffffffffffffffffffffffffffff1673ffffffffffffffffffffffffffffffffffffffff163373ffffffffffffffffffffffffffffffffffffffff161461095f576040517f08c379a0000000000000000000000000000000000000000000000000000000008152600401610956906126c0565b60405180910390fd5b5f4790505f81116109a5576040517f08c379a000000000000000000000000000000000000000000000000000000000815260040161099c90612728565b60405180910390fd5b5f5f5f9054906101000a900473ffffffffffffffffffffffffffffffffffffffff1673ffffffffffffffffffffffffffffffffffffffff16826040516109ea90612773565b5f6040518083038185875af1925050503d805f8114610a24576040519150601f19603f3d011682016040523d82523d5f602084013e610a29565b606091505b5050905080610a6d576040517f08c379a0000000000000000000000000000000000000000000000000000000008152600401610a64906127d1565b60405180910390fd5b5050565b60065481565b5f5f9054906101000a900473ffffffffffffffffffffffffffffffffffffffff1673ffffffffffffffffffffffffffffffffffffffff163373ffffffffffffffffffffffffffffffffffffffff1614610b05576040517f08c379a0000000000000000000000000000000000000000000000000000000008152600401610afc906126c0565b60405180910390fd5b5f73ffffffffffffffffffffffffffffffffffffffff168473ffffffffffffffffffffffffffffffffffffffff1603610b73576040517f08c379a0000000000000000000000000000000000000000000000000000000008152600401610b6a90612839565b60405180910390fd5b5f8111610bb5576040517f08c379a0000000000000000000000000000000000000000000000000000000008152600401610bac906128a1565b60405180910390fd5b5f8211610bf7576040517f08c379a0000000000000000000000000000000000000000000000000000000008152600401610bee90612909565b60405180910390fd5b60036040518060c00160405280876002811115610c1757610c16611e87565b5b81526020018673ffffffffffffffffffffffffffffffffffffffff16815260200185815260200184815260200183815260200160011515815250908060018154018082558091505060019003905f5260205f2090600502015f909190919091505f820151815f015f6101000a81548160ff02191690836002811115610c9f57610c9e611e87565b5b02179055506020820151815f0160016101000a81548173ffffffffffffffffffffffffffffffffffffffff021916908373ffffffffffffffffffffffffffffffffffffffff16021790555060408201518160010155606082015181600201556080820151816003015560a0820151816004015f6101000a81548160ff02191690831515021790555050508060025f828254610d3a9190612954565b925050819055507f090a870bd61d9d85f799adb721994bb738e74e62aa9de13d16e38dec6b15030f8585858585604051610d78959493929190612987565b60405180910390a17f224ec51175c3cd3b95c2fb489ba4a9ce2cbdc60a7c820286a491cdc30f1f3353600154600254604051610db59291906129d8565b60405180910390a15050505050565b5f600380549050905090565b5f5f9054906101000a900473ffffffffffffffffffffffffffffffffffffffff1681565b60025481565b60055f9054906101000a900473ffffffffffffffffffffffffffffffffffffffff1681565b60015481565b600760089054906101000a900461ffff1681565b5f63bc197c8160e01b905095945050505050565b600154341015610e92576040517f08c379a0000000000000000000000000000000000000000000000000000000008152600401610e8990612a49565b60405180910390fd5b5f60025411610ed6576040517f08c379a0000000000000000000000000000000000000000000000000000000008152600401610ecd90612ab1565b60405180910390fd5b5f60055f9054906101000a900473ffffffffffffffffffffffffffffffffffffffff1673ffffffffffffffffffffffffffffffffffffffff16635d3b1d3060065460075f9054906101000a900467ffffffffffffffff16600760089054906101000a900461ffff166007600a9054906101000a900463ffffffff1660016040518663ffffffff1660e01b8152600401610f73959493929190612b08565b6020604051808303815f875af1158015610f8f573d5f5f3e3d5ffd5b505050506040513d601f19601f82011682018060405250810190610fb39190612b6d565b905060405180604001604052803373ffffffffffffffffffffffffffffffffffffffff1681526020015f151581525060045f8381526020019081526020015f205f820151815f015f6101000a81548173ffffffffffffffffffffffffffffffffffffffff021916908373ffffffffffffffffffffffffffffffffffffffff1602179055506020820151815f0160146101000a81548160ff021916908315150217905550905050803373ffffffffffffffffffffffffffffffffffffffff167f3bd3ee391cdd8439843e438498447282de131a00cc9bf959ea0d529947cc95f4346040516110a091906121d8565b60405180910390a3600154341115611169575f3373ffffffffffffffffffffffffffffffffffffffff16600154346110d89190612b98565b6040516110e490612773565b5f6040518083038185875af1925050503d805f811461111e576040519150601f19603f3d011682016040523d82523d5f602084013e611123565b606091505b5050905080611167576040517f08c379a000000000000000000000000000000000000000000000000000000000815260040161115e90612c15565b60405180910390fd5b505b50565b5f60038054905082106111b4576040517f08c379a00000000000000000000000000000000000000000000000000000000081526004016111ab90612c7d565b60405180910390fd5b5f600254116111f8576040517f08c379a00000000000000000000000000000000000000000000000000000000081526004016111ef90612ce5565b60405180910390fd5b6003828154811061120c5761120b6124b4565b5b905f5260205f2090600502016004015f9054906101000a900460ff16611234575f9050611275565b6002546127106003848154811061124e5761124d6124b4565b5b905f5260205f209060050201600301546112689190612d03565b6112729190612d44565b90505b919050565b5f5f9054906101000a900473ffffffffffffffffffffffffffffffffffffffff1673ffffffffffffffffffffffffffffffffffffffff163373ffffffffffffffffffffffffffffffffffffffff1614611308576040517f08c379a00000000000000000000000000000000000000000000000000000000081526004016112ff906126c0565b60405180910390fd5b600380549050811061134f576040517f08c379a000000000000000000000000000000000000000000000000000000000815260040161134690612c7d565b60405180910390fd5b5f60038281548110611364576113636124b4565b5b905f5260205f2090600502019050806004015f9054906101000a900460ff1615816004015f6101000a81548160ff021916908315150217905550806004015f9054906101000a900460ff16156113d557806003015460025f8282546113c99190612954565b925050819055506113f2565b806003015460025f8282546113ea9190612b98565b925050819055505b7f224ec51175c3cd3b95c2fb489ba4a9ce2cbdc60a7c820286a491cdc30f1f33536001546002546040516114279291906129d8565b60405180910390a15050565b5f63f23a6e6160e01b905095945050505050565b5f5f9054906101000a900473ffffffffffffffffffffffffffffffffffffffff1673ffffffffffffffffffffffffffffffffffffffff163373ffffffffffffffffffffffffffffffffffffffff16146114d5576040517f08c379a00000000000000000000000000000000000000000000000000000000081526004016114cc906126c0565b60405180910390fd5b5f73ffffffffffffffffffffffffffffffffffffffff168173ffffffffffffffffffffffffffffffffffffffff1603611543576040517f08c379a000000000000000000000000000000000000000000000000000000000815260040161153a90612dbe565b60405180910390fd5b5f5f5f9054906101000a900473ffffffffffffffffffffffffffffffffffffffff169050815f5f6101000a81548173ffffffffffffffffffffffffffffffffffffffff021916908373ffffffffffffffffffffffffffffffffffffffff1602179055508173ffffffffffffffffffffffffffffffffffffffff168173ffffffffffffffffffffffffffffffffffffffff167f8be0079c531659141344cd1fd0a4f28419497f9722a3daafe3b4186f6b6457e060405160405180910390a35050565b60038181548110611613575f80fd5b905f5260205f2090600502015f91509050805f015f9054906101000a900460ff1690805f0160019054906101000a900473ffffffffffffffffffffffffffffffffffffffff1690806001015490806002015490806003015490806004015f9054906101000a900460ff16905086565b5f5f9054906101000a900473ffffffffffffffffffffffffffffffffffffffff1673ffffffffffffffffffffffffffffffffffffffff163373ffffffffffffffffffffffffffffffffffffffff1614611710576040517f08c379a0000000000000000000000000000000000000000000000000000000008152600401611707906126c0565b60405180910390fd5b806001819055507f224ec51175c3cd3b95c2fb489ba4a9ce2cbdc60a7c820286a491cdc30f1f335360015460025460405161174c9291906129d8565b60405180910390a150565b5f5f5f90505f5f90505b6003805490508110156117f45760038181548110611782576117816124b4565b5b905f5260205f2090600502016004015f9054906101000a900460ff16156117e757600381815481106117b7576117b66124b4565b5b905f5260205f20906005020160030154826117d29190612954565b9150818410156117e6578092505050611830565b5b8080600101915050611761565b506040517f08c379a000000000000000000000000000000000000000000000000000000000815260040161182790612e26565b60405180910390fd5b919050565b5f6003838154811061184a576118496124b4565b5b905f5260205f20906005020190505f600281111561186b5761186a611e87565b5b815f015f9054906101000a900460ff16600281111561188d5761188c611e87565b5b0361193a57805f0160019054906101000a900473ffffffffffffffffffffffffffffffffffffffff1673ffffffffffffffffffffffffffffffffffffffff1663a9059cbb8583600201546040518363ffffffff1660e01b81526004016118f4929190612e44565b6020604051808303815f875af1158015611910573d5f5f3e3d5ffd5b505050506040513d601f19601f820116820180604052508101906119349190612e95565b50611adf565b6001600281111561194e5761194d611e87565b5b815f015f9054906101000a900460ff1660028111156119705761196f611e87565b5b03611a0b57805f0160019054906101000a900473ffffffffffffffffffffffffffffffffffffffff1673ffffffffffffffffffffffffffffffffffffffff166323b872dd308684600101546040518463ffffffff1660e01b81526004016119d993929190612ec0565b5f604051808303815f87803b1580156119f0575f5ffd5b505af1158015611a02573d5f5f3e3d5ffd5b50505050611ade565b600280811115611a1e57611a1d611e87565b5b815f015f9054906101000a900460ff166002811115611a4057611a3f611e87565b5b03611add57805f0160019054906101000a900473ffffffffffffffffffffffffffffffffffffffff1673ffffffffffffffffffffffffffffffffffffffff1663f242432a3086846001015485600201546040518563ffffffff1660e01b8152600401611aaf9493929190612f25565b5f604051808303815f87803b158015611ac6575f5ffd5b505af1158015611ad8573d5f5f3e3d5ffd5b505050505b5b5b818473ffffffffffffffffffffffffffffffffffffffff167f168b31230dc8c1588b274edc8025320bf742c80d9b054f4ad64f0708c25c35e1835f015f9054906101000a900460ff16845f0160019054906101000a900473ffffffffffffffffffffffffffffffffffffffff1685600101548660020154604051611b669493929190612f7b565b60405180910390a350505050565b5f67ffffffffffffffff82169050919050565b611b9081611b74565b82525050565b5f602082019050611ba95f830184611b87565b92915050565b5f604051905090565b5f5ffd5b5f5ffd5b5f73ffffffffffffffffffffffffffffffffffffffff82169050919050565b5f611be982611bc0565b9050919050565b611bf981611bdf565b8114611c03575f5ffd5b50565b5f81359050611c1481611bf0565b92915050565b5f819050919050565b611c2c81611c1a565b8114611c36575f5ffd5b50565b5f81359050611c4781611c23565b92915050565b5f5ffd5b5f5ffd5b5f601f19601f8301169050919050565b7f4e487b71000000000000000000000000000000000000000000000000000000005f52604160045260245ffd5b611c9b82611c55565b810181811067ffffffffffffffff82111715611cba57611cb9611c65565b5b80604052505050565b5f611ccc611baf565b9050611cd88282611c92565b919050565b5f67ffffffffffffffff821115611cf757611cf6611c65565b5b611d0082611c55565b9050602081019050919050565b828183375f83830152505050565b5f611d2d611d2884611cdd565b611cc3565b905082815260208101848484011115611d4957611d48611c51565b5b611d54848285611d0d565b509392505050565b5f82601f830112611d7057611d6f611c4d565b5b8135611d80848260208601611d1b565b91505092915050565b5f5f5f5f60808587031215611da157611da0611bb8565b5b5f611dae87828801611c06565b9450506020611dbf87828801611c06565b9350506040611dd087828801611c39565b925050606085013567ffffffffffffffff811115611df157611df0611bbc565b5b611dfd87828801611d5c565b91505092959194509250565b5f7fffffffff0000000000000000000000000000000000000000000000000000000082169050919050565b611e3d81611e09565b82525050565b5f602082019050611e565f830184611e34565b92915050565b5f60208284031215611e7157611e70611bb8565b5b5f611e7e84828501611c39565b91505092915050565b7f4e487b71000000000000000000000000000000000000000000000000000000005f52602160045260245ffd5b60038110611ec557611ec4611e87565b5b50565b5f819050611ed582611eb4565b919050565b5f611ee482611ec8565b9050919050565b611ef481611eda565b82525050565b611f0381611bdf565b82525050565b611f1281611c1a565b82525050565b5f8115159050919050565b611f2c81611f18565b82525050565b5f60c082019050611f455f830189611eeb565b611f526020830188611efa565b611f5f6040830187611f09565b611f6c6060830186611f09565b611f796080830185611f09565b611f8660a0830184611f23565b979650505050505050565b5f63ffffffff82169050919050565b611fa981611f91565b82525050565b5f602082019050611fc25f830184611fa0565b92915050565b5f67ffffffffffffffff821115611fe257611fe1611c65565b5b602082029050602081019050919050565b5f5ffd5b5f61200961200484611fc8565b611cc3565b9050808382526020820190506020840283018581111561202c5761202b611ff3565b5b835b8181101561205557806120418882611c39565b84526020840193505060208101905061202e565b5050509392505050565b5f82601f83011261207357612072611c4d565b5b8135612083848260208601611ff7565b91505092915050565b5f5f604083850312156120a2576120a1611bb8565b5b5f6120af85828601611c39565b925050602083013567ffffffffffffffff8111156120d0576120cf611bbc565b5b6120dc8582860161205f565b9150509250929050565b5f6040820190506120f95f830185611efa565b6121066020830184611f23565b9392505050565b5f819050919050565b61211f8161210d565b82525050565b5f6020820190506121385f830184612116565b92915050565b6003811061214a575f5ffd5b50565b5f8135905061215b8161213e565b92915050565b5f5f5f5f5f60a0868803121561217a57612179611bb8565b5b5f6121878882890161214d565b955050602061219888828901611c06565b94505060406121a988828901611c39565b93505060606121ba88828901611c39565b92505060806121cb88828901611c39565b9150509295509295909350565b5f6020820190506121eb5f830184611f09565b92915050565b5f6020820190506122045f830184611efa565b92915050565b5f819050919050565b5f61222d61222861222384611bc0565b61220a565b611bc0565b9050919050565b5f61223e82612213565b9050919050565b5f61224f82612234565b9050919050565b61225f81612245565b82525050565b5f6020820190506122785f830184612256565b92915050565b5f61ffff82169050919050565b6122948161227e565b82525050565b5f6020820190506122ad5f83018461228b565b92915050565b5f5f5f5f5f60a086880312156122cc576122cb611bb8565b5b5f6122d988828901611c06565b95505060206122ea88828901611c06565b945050604086013567ffffffffffffffff81111561230b5761230a611bbc565b5b6123178882890161205f565b935050606086013567ffffffffffffffff81111561233857612337611bbc565b5b6123448882890161205f565b925050608086013567ffffffffffffffff81111561236557612364611bbc565b5b61237188828901611d5c565b9150509295509295909350565b5f5f5f5f5f60a0868803121561239757612396611bb8565b5b5f6123a488828901611c06565b95505060206123b588828901611c06565b94505060406123c688828901611c39565b93505060606123d788828901611c39565b925050608086013567ffffffffffffffff8111156123f8576123f7611bbc565b5b61240488828901611d5c565b9150509295509295909350565b5f6020828403121561242657612425611bb8565b5b5f61243384828501611c06565b91505092915050565b5f82825260208201905092915050565b7f496e76616c696420696e646578000000000000000000000000000000000000005f82015250565b5f612480600d8361243c565b915061248b8261244c565b602082019050919050565b5f6020820190508181035f8301526124ad81612474565b9050919050565b7f4e487b71000000000000000000000000000000000000000000000000000000005f52603260045260245ffd5b7f4e6f742056524620636f6f7264696e61746f72000000000000000000000000005f82015250565b5f61251560138361243c565b9150612520826124e1565b602082019050919050565b5f6020820190508181035f83015261254281612509565b9050919050565b7f5265717565737420616c72656164792066756c66696c6c6564000000000000005f82015250565b5f61257d60198361243c565b915061258882612549565b602082019050919050565b5f6020820190508181035f8301526125aa81612571565b9050919050565b7f496e76616c6964207265717565737400000000000000000000000000000000005f82015250565b5f6125e5600f8361243c565b91506125f0826125b1565b602082019050919050565b5f6020820190508181035f830152612612816125d9565b9050919050565b7f4e487b71000000000000000000000000000000000000000000000000000000005f52601260045260245ffd5b5f61265082611c1a565b915061265b83611c1a565b92508261266b5761266a612619565b5b828206905092915050565b7f4e6f74206f776e657200000000000000000000000000000000000000000000005f82015250565b5f6126aa60098361243c565b91506126b582612676565b602082019050919050565b5f6020820190508181035f8301526126d78161269e565b9050919050565b7f4e6f2066756e647320746f2077697468647261770000000000000000000000005f82015250565b5f61271260148361243c565b915061271d826126de565b602082019050919050565b5f6020820190508181035f83015261273f81612706565b9050919050565b5f81905092915050565b50565b5f61275e5f83612746565b915061276982612750565b5f82019050919050565b5f61277d82612753565b9150819050919050565b7f5769746864726177616c206661696c65640000000000000000000000000000005f82015250565b5f6127bb60118361243c565b91506127c682612787565b602082019050919050565b5f6020820190508181035f8301526127e8816127af565b9050919050565b7f496e76616c696420746f6b656e206164647265737300000000000000000000005f82015250565b5f61282360158361243c565b915061282e826127ef565b602082019050919050565b5f6020820190508181035f83015261285081612817565b9050919050565b7f576569676874206d757374206265203e203000000000000000000000000000005f82015250565b5f61288b60128361243c565b915061289682612857565b602082019050919050565b5f6020820190508181035f8301526128b88161287f565b9050919050565b7f416d6f756e74206d757374206265203e203000000000000000000000000000005f82015250565b5f6128f360128361243c565b91506128fe826128bf565b602082019050919050565b5f6020820190508181035f830152612920816128e7565b9050919050565b7f4e487b71000000000000000000000000000000000000000000000000000000005f52601160045260245ffd5b5f61295e82611c1a565b915061296983611c1a565b925082820190508082111561298157612980612927565b5b92915050565b5f60a08201905061299a5f830188611eeb565b6129a76020830187611efa565b6129b46040830186611f09565b6129c16060830185611f09565b6129ce6080830184611f09565b9695505050505050565b5f6040820190506129eb5f830185611f09565b6129f86020830184611f09565b9392505050565b7f496e73756666696369656e74207061796d656e740000000000000000000000005f82015250565b5f612a3360148361243c565b9150612a3e826129ff565b602082019050919050565b5f6020820190508181035f830152612a6081612a27565b9050919050565b7f4e6f207265776172647320617661696c61626c650000000000000000000000005f82015250565b5f612a9b60148361243c565b9150612aa682612a67565b602082019050919050565b5f6020820190508181035f830152612ac881612a8f565b9050919050565b5f819050919050565b5f612af2612aed612ae884612acf565b61220a565b611f91565b9050919050565b612b0281612ad8565b82525050565b5f60a082019050612b1b5f830188612116565b612b286020830187611b87565b612b35604083018661228b565b612b426060830185611fa0565b612b4f6080830184612af9565b9695505050505050565b5f81519050612b6781611c23565b92915050565b5f60208284031215612b8257612b81611bb8565b5b5f612b8f84828501612b59565b91505092915050565b5f612ba282611c1a565b9150612bad83611c1a565b9250828203905081811115612bc557612bc4612927565b5b92915050565b7f526566756e64206661696c6564000000000000000000000000000000000000005f82015250565b5f612bff600d8361243c565b9150612c0a82612bcb565b602082019050919050565b5f6020820190508181035f830152612c2c81612bf3565b9050919050565b7f496e76616c69642072657761726420696e6465780000000000000000000000005f82015250565b5f612c6760148361243c565b9150612c7282612c33565b602082019050919050565b5f6020820190508181035f830152612c9481612c5b565b9050919050565b7f4e6f2061637469766520726577617264730000000000000000000000000000005f82015250565b5f612ccf60118361243c565b9150612cda82612c9b565b602082019050919050565b5f6020820190508181035f830152612cfc81612cc3565b9050919050565b5f612d0d82611c1a565b9150612d1883611c1a565b9250828202612d2681611c1a565b91508282048414831517612d3d57612d3c612927565b5b5092915050565b5f612d4e82611c1a565b9150612d5983611c1a565b925082612d6957612d68612619565b5b828204905092915050565b7f496e76616c6964206164647265737300000000000000000000000000000000005f82015250565b5f612da8600f8361243c565b9150612db382612d74565b602082019050919050565b5f6020820190508181035f830152612dd581612d9c565b9050919050565b7f4e6f207265776172642073656c656374656400000000000000000000000000005f82015250565b5f612e1060128361243c565b9150612e1b82612ddc565b602082019050919050565b5f6020820190508181035f830152612e3d81612e04565b9050919050565b5f604082019050612e575f830185611efa565b612e646020830184611f09565b9392505050565b612e7481611f18565b8114612e7e575f5ffd5b50565b5f81519050612e8f81612e6b565b92915050565b5f60208284031215612eaa57612ea9611bb8565b5b5f612eb784828501612e81565b91505092915050565b5f606082019050612ed35f830186611efa565b612ee06020830185611efa565b612eed6040830184611f09565b949350505050565b5f82825260208201905092915050565b5f612f105f83612ef5565b9150612f1b82612750565b5f82019050919050565b5f60a082019050612f385f830187611efa565b612f456020830186611efa565b612f526040830185611f09565b612f5f6060830184611f09565b8181036080830152612f7081612f05565b905095945050505050565b5f608082019050612f8e5f830187611eeb565b612f9b6020830186611efa565b612fa86040830185611f09565b612fb56060830184611f09565b9594505050505056fea26469706673582212205dfedf41394f3b9cab37a067ebca63bb69a3ad085a160c28bbc3465ee4f173e664736f6c634300081e0033","linkReferences":{}},"methodIdentifiers":{"addReward(uint8,address,uint256,uint256,uint256)":"7aadb8e5","boxPrice()":"a6482858","calculateRewardProbability(uint256)":"ca3519ec","callbackGasLimit()":"24f74697","fulfillRandomWords(uint256,uint256[])":"38ba4614","getReward(uint256)":"1c4b774b","getRewardCount()":"7e7e8eec","keyHash()":"61728f39","onERC1155BatchReceived(address,address,uint256[],uint256[],bytes)":"bc197c81","onERC1155Received(address,address,uint256,uint256,bytes)":"f23a6e61","onERC721Received(address,address,uint256,bytes)":"150b7a02","openBox()":"c2e952c7","owner()":"8da5cb5b","pendingRequests(uint256)":"3c652a9a","requestConfirmations()":"b0fb162f","rewards(uint256)":"f301af42","setBoxPrice(uint256)":"f7dbea3e","subscriptionId()":"09c1ba2e","toggleReward(uint256)":"ccb4f51e","totalWeight()":"96c82e57","transferOwnership(address)":"f2fde38b","vrfCoordinator()":"a3e56fa8","withdraw()":"3ccfd60b"},"id":23}