{
  "_format": "hh-sol-artifact-1",
  "contractName": "StakingFactory",
  "sourceName": "contracts/StakingFactory.sol",
  "abi": [
    {
      "anonymous": false,
      "inputs": [
        {
          "indexed": true,
          "internalType": "address",
          "name": "tokenA",
          "type": "address"
        },
        {
          "indexed": true,
          "internalType": "address",
          "name": "tokenB",
          "type": "address"
        },
        {
          "indexed": true,
          "internalType": "address",
          "name": "stakingContract",
          "type": "address"
        },
        {
          "indexed": false,
          "internalType": "uint256",
          "name": "lockPeriod",
          "type": "uint256"
        }
      ],
      "name": "StakingSystemDeployed",
      "type": "event"
    },
    {
      "inputs": [
        {
          "internalType": "uint256",
          "name": "",
          "type": "uint256"
        }
      ],
      "name": "allSystems",
      "outputs": [
        {
          "internalType": "address",
          "name": "tokenA",
          "type": "address"
        },
        {
          "internalType": "address",
          "name": "tokenB",
          "type": "address"
        },
        {
          "internalType": "address",
          "name": "stakingContract",
          "type": "address"
        },
        {
          "internalType": "uint256",
          "name": "lockPeriod",
          "type": "uint256"
        },
        {
          "internalType": "uint256",
          "name": "deployedAt",
          "type": "uint256"
        }
      ],
      "stateMutability": "view",
      "type": "function"
    },
    {
      "inputs": [
        {
          "internalType": "uint256",
          "name": "tokenAInitialSupply",
          "type": "uint256"
        },
        {
          "internalType": "uint256",
          "name": "lockPeriodInDays",
          "type": "uint256"
        }
      ],
      "name": "deployStakingSystem",
      "outputs": [
        {
          "internalType": "address",
          "name": "tokenA",
          "type": "address"
        },
        {
          "internalType": "address",
          "name": "tokenB",
          "type": "address"
        },
        {
          "internalType": "address",
          "name": "stakingContract",
          "type": "address"
        }
      ],
      "stateMutability": "nonpayable",
      "type": "function"
    },
    {
      "inputs": [
        {
          "internalType": "address",
          "name": "",
          "type": "address"
        },
        {
          "internalType": "uint256",
          "name": "",
          "type": "uint256"
        }
      ],
      "name": "deployedSystems",
      "outputs": [
        {
          "internalType": "address",
          "name": "tokenA",
          "type": "address"
        },
        {
          "internalType": "address",
          "name": "tokenB",
          "type": "address"
        },
        {
          "internalType": "address",
          "name": "stakingContract",
          "type": "address"
        },
        {
          "internalType": "uint256",
          "name": "lockPeriod",
          "type": "uint256"
        },
        {
          "internalType": "uint256",
          "name": "deployedAt",
          "type": "uint256"
        }
      ],
      "stateMutability": "view",
      "type": "function"
    },
    {
      "inputs": [],
      "name": "getAllDeployments",
      "outputs": [
        {
          "components": [
            {
              "internalType": "address",
              "name": "tokenA",
              "type": "address"
            },
            {
              "internalType": "address",
              "name": "tokenB",
              "type": "address"
            },
            {
              "internalType": "address",
              "name": "stakingContract",
              "type": "address"
            },
            {
              "internalType": "uint256",
              "name": "lockPeriod",
              "type": "uint256"
            },
            {
              "internalType": "uint256",
              "name": "deployedAt",
              "type": "uint256"
            }
          ],
          "internalType": "struct StakingFactory.StakingSystem[]",
          "name": "",
          "type": "tuple[]"
        }
      ],
      "stateMutability": "view",
      "type": "function"
    },
    {
      "inputs": [],
      "name": "getDeploymentCount",
      "outputs": [
        {
          "internalType": "uint256",
          "name": "",
          "type": "uint256"
        }
      ],
      "stateMutability": "view",
      "type": "function"
    },
    {
      "inputs": [
        {
          "internalType": "address",
          "name": "user",
          "type": "address"
        }
      ],
      "name": "getUserDeployments",
      "outputs": [
        {
          "components": [
            {
              "internalType": "address",
              "name": "tokenA",
              "type": "address"
            },
            {
              "internalType": "address",
              "name": "tokenB",
              "type": "address"
            },
            {
              "internalType": "address",
              "name": "stakingContract",
              "type": "address"
            },
            {
              "internalType": "uint256",
              "name": "lockPeriod",
              "type": "uint256"
            },
            {
              "internalType": "uint256",
              "name": "deployedAt",
              "type": "uint256"
            }
          ],
          "internalType": "struct StakingFactory.StakingSystem[]",
          "name": "",
          "type": "tuple[]"
        }
      ],
      "stateMutability": "view",
      "type": "function"
    }
  ],
  "bytecode": "0x6080604052348015600f57600080fd5b506156f98061001f6000396000f3fe608060405234801561001057600080fd5b50600436106100625760003560e01c8063630bdfac146100675780638eec00b814610097578063b3eedf12146100b5578063d9586bf7146100d3578063f4605ea314610107578063fc30d4e31461013b575b600080fd5b610081600480360381019061007c9190610b7b565b61016d565b60405161008e9190610ce7565b60405180910390f35b61009f610320565b6040516100ac9190610ce7565b60405180910390f35b6100bd610495565b6040516100ca9190610d18565b60405180910390f35b6100ed60048036038101906100e89190610d5f565b6104a2565b6040516100fe959493929190610d9b565b60405180910390f35b610121600480360381019061011c9190610dee565b610548565b604051610132959493929190610d9b565b60405180910390f35b61015560048036038101906101509190610e2e565b6105fb565b60405161016493929190610e6e565b60405180910390f35b60606000808373ffffffffffffffffffffffffffffffffffffffff1673ffffffffffffffffffffffffffffffffffffffff168152602001908152602001600020805480602002602001604051908101604052809291908181526020016000905b8282101561031557838290600052602060002090600502016040518060a00160405290816000820160009054906101000a900473ffffffffffffffffffffffffffffffffffffffff1673ffffffffffffffffffffffffffffffffffffffff1673ffffffffffffffffffffffffffffffffffffffff1681526020016001820160009054906101000a900473ffffffffffffffffffffffffffffffffffffffff1673ffffffffffffffffffffffffffffffffffffffff1673ffffffffffffffffffffffffffffffffffffffff1681526020016002820160009054906101000a900473ffffffffffffffffffffffffffffffffffffffff1673ffffffffffffffffffffffffffffffffffffffff1673ffffffffffffffffffffffffffffffffffffffff16815260200160038201548152602001600482015481525050815260200190600101906101cd565b505050509050919050565b60606001805480602002602001604051908101604052809291908181526020016000905b8282101561048c57838290600052602060002090600502016040518060a00160405290816000820160009054906101000a900473ffffffffffffffffffffffffffffffffffffffff1673ffffffffffffffffffffffffffffffffffffffff1673ffffffffffffffffffffffffffffffffffffffff1681526020016001820160009054906101000a900473ffffffffffffffffffffffffffffffffffffffff1673ffffffffffffffffffffffffffffffffffffffff1673ffffffffffffffffffffffffffffffffffffffff1681526020016002820160009054906101000a900473ffffffffffffffffffffffffffffffffffffffff1673ffffffffffffffffffffffffffffffffffffffff1673ffffffffffffffffffffffffffffffffffffffff1681526020016003820154815260200160048201548152505081526020019060010190610344565b50505050905090565b6000600180549050905090565b600181815481106104b257600080fd5b90600052602060002090600502016000915090508060000160009054906101000a900473ffffffffffffffffffffffffffffffffffffffff16908060010160009054906101000a900473ffffffffffffffffffffffffffffffffffffffff16908060020160009054906101000a900473ffffffffffffffffffffffffffffffffffffffff16908060030154908060040154905085565b6000602052816000526040600020818154811061056457600080fd5b9060005260206000209060050201600091509150508060000160009054906101000a900473ffffffffffffffffffffffffffffffffffffffff16908060010160009054906101000a900473ffffffffffffffffffffffffffffffffffffffff16908060020160009054906101000a900473ffffffffffffffffffffffffffffffffffffffff16908060030154908060040154905085565b60008060008062015180856106109190610ed4565b905060008660405161062190610af1565b61062b9190610d18565b604051809103906000f080158015610647573d6000803e3d6000fd5b509050600060405161065890610afe565b604051809103906000f080158015610674573d6000803e3d6000fd5b509050600082828560405161068890610b0b565b61069493929190610f16565b604051809103906000f0801580156106b0573d6000803e3d6000fd5b5090508173ffffffffffffffffffffffffffffffffffffffff16639dd373b9826040518263ffffffff1660e01b81526004016106ec9190610f4d565b600060405180830381600087803b15801561070657600080fd5b505af115801561071a573d6000803e3d6000fd5b505050508273ffffffffffffffffffffffffffffffffffffffff1663f2fde38b336040518263ffffffff1660e01b81526004016107579190610f4d565b600060405180830381600087803b15801561077157600080fd5b505af1158015610785573d6000803e3d6000fd5b5050505060006040518060a001604052808573ffffffffffffffffffffffffffffffffffffffff1681526020018473ffffffffffffffffffffffffffffffffffffffff1681526020018373ffffffffffffffffffffffffffffffffffffffff1681526020018681526020014281525090506000803373ffffffffffffffffffffffffffffffffffffffff1673ffffffffffffffffffffffffffffffffffffffff16815260200190815260200160002081908060018154018082558091505060019003906000526020600020906005020160009091909190915060008201518160000160006101000a81548173ffffffffffffffffffffffffffffffffffffffff021916908373ffffffffffffffffffffffffffffffffffffffff16021790555060208201518160010160006101000a81548173ffffffffffffffffffffffffffffffffffffffff021916908373ffffffffffffffffffffffffffffffffffffffff16021790555060408201518160020160006101000a81548173ffffffffffffffffffffffffffffffffffffffff021916908373ffffffffffffffffffffffffffffffffffffffff16021790555060608201518160030155608082015181600401555050600181908060018154018082558091505060019003906000526020600020906005020160009091909190915060008201518160000160006101000a81548173ffffffffffffffffffffffffffffffffffffffff021916908373ffffffffffffffffffffffffffffffffffffffff16021790555060208201518160010160006101000a81548173ffffffffffffffffffffffffffffffffffffffff021916908373ffffffffffffffffffffffffffffffffffffffff16021790555060408201518160020160006101000a81548173ffffffffffffffffffffffffffffffffffffffff021916908373ffffffffffffffffffffffffffffffffffffffff160217905550606082015181600301556080820151816004015550508173ffffffffffffffffffffffffffffffffffffffff168373ffffffffffffffffffffffffffffffffffffffff168573ffffffffffffffffffffffffffffffffffffffff167f330d0e0fb7c8fd7632f208e375edca07feeddd9155180481407e9939eecacea988604051610ad49190610d18565b60405180910390a483838397509750975050505050509250925092565b61161480610f6983390190565b6114ec8061257d83390190565b611c5b80613a6983390190565b600080fd5b600073ffffffffffffffffffffffffffffffffffffffff82169050919050565b6000610b4882610b1d565b9050919050565b610b5881610b3d565b8114610b6357600080fd5b50565b600081359050610b7581610b4f565b92915050565b600060208284031215610b9157610b90610b18565b5b6000610b9f84828501610b66565b91505092915050565b600081519050919050565b600082825260208201905092915050565b6000819050602082019050919050565b610bdd81610b3d565b82525050565b6000819050919050565b610bf681610be3565b82525050565b60a082016000820151610c126000850182610bd4565b506020820151610c256020850182610bd4565b506040820151610c386040850182610bd4565b506060820151610c4b6060850182610bed565b506080820151610c5e6080850182610bed565b50505050565b6000610c708383610bfc565b60a08301905092915050565b6000602082019050919050565b6000610c9482610ba8565b610c9e8185610bb3565b9350610ca983610bc4565b8060005b83811015610cda578151610cc18882610c64565b9750610ccc83610c7c565b925050600181019050610cad565b5085935050505092915050565b60006020820190508181036000830152610d018184610c89565b905092915050565b610d1281610be3565b82525050565b6000602082019050610d2d6000830184610d09565b92915050565b610d3c81610be3565b8114610d4757600080fd5b50565b600081359050610d5981610d33565b92915050565b600060208284031215610d7557610d74610b18565b5b6000610d8384828501610d4a565b91505092915050565b610d9581610b3d565b82525050565b600060a082019050610db06000830188610d8c565b610dbd6020830187610d8c565b610dca6040830186610d8c565b610dd76060830185610d09565b610de46080830184610d09565b9695505050505050565b60008060408385031215610e0557610e04610b18565b5b6000610e1385828601610b66565b9250506020610e2485828601610d4a565b9150509250929050565b60008060408385031215610e4557610e44610b18565b5b6000610e5385828601610d4a565b9250506020610e6485828601610d4a565b9150509250929050565b6000606082019050610e836000830186610d8c565b610e906020830185610d8c565b610e9d6040830184610d8c565b949350505050565b7f4e487b7100000000000000000000000000000000000000000000000000000000600052601160045260246000fd5b6000610edf82610be3565b9150610eea83610be3565b9250828202610ef881610be3565b91508282048414831517610f0f57610f0e610ea5565b5b5092915050565b6000606082019050610f2b6000830186610d8c565b610f386020830185610d8c565b610f456040830184610d09565b949350505050565b6000602082019050610f626000830184610d8c565b9291505056fe608060405234801561001057600080fd5b5060405161161438038061161483398181016040528101906100329190610181565b33600160006101000a81548173ffffffffffffffffffffffffffffffffffffffff021916908373ffffffffffffffffffffffffffffffffffffffff1602179055506012600a610081919061031d565b8161008c9190610368565b600081905550600054600260003373ffffffffffffffffffffffffffffffffffffffff1673ffffffffffffffffffffffffffffffffffffffff168152602001908152602001600020819055503373ffffffffffffffffffffffffffffffffffffffff16600073ffffffffffffffffffffffffffffffffffffffff167fddf252ad1be2c89b69c2b068fc378daa952ba7f163c4a11628f55a4df523b3ef60005460405161013891906103b9565b60405180910390a3506103d4565b600080fd5b6000819050919050565b61015e8161014b565b811461016957600080fd5b50565b60008151905061017b81610155565b92915050565b60006020828403121561019757610196610146565b5b60006101a58482850161016c565b91505092915050565b7f4e487b7100000000000000000000000000000000000000000000000000000000600052601160045260246000fd5b60008160011c9050919050565b6000808291508390505b6001851115610234578086048111156102105761020f6101ae565b5b600185161561021f5780820291505b808102905061022d856101dd565b94506101f4565b94509492505050565b60008261024d5760019050610309565b8161025b5760009050610309565b8160018114610271576002811461027b576102aa565b6001915050610309565b60ff84111561028d5761028c6101ae565b5b8360020a9150848211156102a4576102a36101ae565b5b50610309565b5060208310610133831016604e8410600b84101617156102df5782820a9050838111156102da576102d96101ae565b5b610309565b6102ec84848460016101ea565b92509050818404811115610303576103026101ae565b5b81810290505b9392505050565b600060ff82169050919050565b60006103288261014b565b915061033383610310565b92506103607fffffffffffffffffffffffffffffffffffffffffffffffffffffffffffffffff848461023d565b905092915050565b60006103738261014b565b915061037e8361014b565b925082820261038c8161014b565b915082820484148315176103a3576103a26101ae565b5b5092915050565b6103b38161014b565b82525050565b60006020820190506103ce60008301846103aa565b92915050565b611231806103e36000396000f3fe608060405234801561001057600080fd5b50600436106100cf5760003560e01c806370a082311161008c5780639dc29fac116100665780639dc29fac14610216578063a9059cbb14610232578063dd62ed3e14610262578063f2fde38b14610292576100cf565b806370a08231146101aa5780638da5cb5b146101da57806395d89b41146101f8576100cf565b806306fdde03146100d4578063095ea7b3146100f257806318160ddd1461012257806323b872dd14610140578063313ce5671461017057806340c10f191461018e575b600080fd5b6100dc6102ae565b6040516100e99190610e7c565b60405180910390f35b61010c60048036038101906101079190610f37565b6102e7565b6040516101199190610f92565b60405180910390f35b61012a61043e565b6040516101379190610fbc565b60405180910390f35b61015a60048036038101906101559190610fd7565b610447565b6040516101679190610f92565b60405180910390f35b61017861078c565b6040516101859190611046565b60405180910390f35b6101a860048036038101906101a39190610f37565b610791565b005b6101c460048036038101906101bf9190611061565b610956565b6040516101d19190610fbc565b60405180910390f35b6101e261099f565b6040516101ef919061109d565b60405180910390f35b6102006109c5565b60405161020d9190610e7c565b60405180910390f35b610230600480360381019061022b9190610f37565b6109fe565b005b61024c60048036038101906102479190610f37565b610a39565b6040516102599190610f92565b60405180910390f35b61027c600480360381019061027791906110b8565b610c34565b6040516102899190610fbc565b60405180910390f35b6102ac60048036038101906102a79190611061565b610cbb565b005b6040518060400160405280600f81526020017f5374616b696e6720546f6b656e2041000000000000000000000000000000000081525081565b60008073ffffffffffffffffffffffffffffffffffffffff168373ffffffffffffffffffffffffffffffffffffffff160361034e576040517fe6c4247b00000000000000000000000000000000000000000000000000000000815260040160405180910390fd5b81600360003373ffffffffffffffffffffffffffffffffffffffff1673ffffffffffffffffffffffffffffffffffffffff16815260200190815260200160002060008573ffffffffffffffffffffffffffffffffffffffff1673ffffffffffffffffffffffffffffffffffffffff168152602001908152602001600020819055508273ffffffffffffffffffffffffffffffffffffffff163373ffffffffffffffffffffffffffffffffffffffff167f8c5be1e5ebec7d5bd14f71427d1e84f3dd0314c0f7b2291e5b200ac8c7c3b9258460405161042c9190610fbc565b60405180910390a36001905092915050565b60008054905090565b60008073ffffffffffffffffffffffffffffffffffffffff168373ffffffffffffffffffffffffffffffffffffffff16036104ae576040517fe6c4247b00000000000000000000000000000000000000000000000000000000815260040160405180910390fd5b81600260008673ffffffffffffffffffffffffffffffffffffffff1673ffffffffffffffffffffffffffffffffffffffff168152602001908152602001600020541015610527576040517ff4d678b800000000000000000000000000000000000000000000000000000000815260040160405180910390fd5b81600360008673ffffffffffffffffffffffffffffffffffffffff1673ffffffffffffffffffffffffffffffffffffffff16815260200190815260200160002060003373ffffffffffffffffffffffffffffffffffffffff1673ffffffffffffffffffffffffffffffffffffffff1681526020019081526020016000205410156105dd576040517f13be252b00000000000000000000000000000000000000000000000000000000815260040160405180910390fd5b81600260008673ffffffffffffffffffffffffffffffffffffffff1673ffffffffffffffffffffffffffffffffffffffff168152602001908152602001600020600082825461062c9190611127565b9250508190555081600260008573ffffffffffffffffffffffffffffffffffffffff1673ffffffffffffffffffffffffffffffffffffffff1681526020019081526020016000206000828254610682919061115b565b9250508190555081600360008673ffffffffffffffffffffffffffffffffffffffff1673ffffffffffffffffffffffffffffffffffffffff16815260200190815260200160002060003373ffffffffffffffffffffffffffffffffffffffff1673ffffffffffffffffffffffffffffffffffffffff16815260200190815260200160002060008282546107159190611127565b925050819055508273ffffffffffffffffffffffffffffffffffffffff168473ffffffffffffffffffffffffffffffffffffffff167fddf252ad1be2c89b69c2b068fc378daa952ba7f163c4a11628f55a4df523b3ef846040516107799190610fbc565b60405180910390a3600190509392505050565b601281565b600160009054906101000a900473ffffffffffffffffffffffffffffffffffffffff1673ffffffffffffffffffffffffffffffffffffffff163373ffffffffffffffffffffffffffffffffffffffff1614610818576040517f5fc483c500000000000000000000000000000000000000000000000000000000815260040160405180910390fd5b600073ffffffffffffffffffffffffffffffffffffffff168273ffffffffffffffffffffffffffffffffffffffff160361087e576040517fe6c4247b00000000000000000000000000000000000000000000000000000000815260040160405180910390fd5b8060008082825461088f919061115b565b9250508190555080600260008473ffffffffffffffffffffffffffffffffffffffff1673ffffffffffffffffffffffffffffffffffffffff16815260200190815260200160002060008282546108e5919061115b565b925050819055508173ffffffffffffffffffffffffffffffffffffffff16600073ffffffffffffffffffffffffffffffffffffffff167fddf252ad1be2c89b69c2b068fc378daa952ba7f163c4a11628f55a4df523b3ef8360405161094a9190610fbc565b60405180910390a35050565b6000600260008373ffffffffffffffffffffffffffffffffffffffff1673ffffffffffffffffffffffffffffffffffffffff168152602001908152602001600020549050919050565b600160009054906101000a900473ffffffffffffffffffffffffffffffffffffffff1681565b6040518060400160405280600481526020017f53544b410000000000000000000000000000000000000000000000000000000081525081565b6040517f08c379a0000000000000000000000000000000000000000000000000000000008152600401610a30906111db565b60405180910390fd5b60008073ffffffffffffffffffffffffffffffffffffffff168373ffffffffffffffffffffffffffffffffffffffff1603610aa0576040517fe6c4247b00000000000000000000000000000000000000000000000000000000815260040160405180910390fd5b81600260003373ffffffffffffffffffffffffffffffffffffffff1673ffffffffffffffffffffffffffffffffffffffff168152602001908152602001600020541015610b19576040517ff4d678b800000000000000000000000000000000000000000000000000000000815260040160405180910390fd5b81600260003373ffffffffffffffffffffffffffffffffffffffff1673ffffffffffffffffffffffffffffffffffffffff1681526020019081526020016000206000828254610b689190611127565b9250508190555081600260008573ffffffffffffffffffffffffffffffffffffffff1673ffffffffffffffffffffffffffffffffffffffff1681526020019081526020016000206000828254610bbe919061115b565b925050819055508273ffffffffffffffffffffffffffffffffffffffff163373ffffffffffffffffffffffffffffffffffffffff167fddf252ad1be2c89b69c2b068fc378daa952ba7f163c4a11628f55a4df523b3ef84604051610c229190610fbc565b60405180910390a36001905092915050565b6000600360008473ffffffffffffffffffffffffffffffffffffffff1673ffffffffffffffffffffffffffffffffffffffff16815260200190815260200160002060008373ffffffffffffffffffffffffffffffffffffffff1673ffffffffffffffffffffffffffffffffffffffff16815260200190815260200160002054905092915050565b600160009054906101000a900473ffffffffffffffffffffffffffffffffffffffff1673ffffffffffffffffffffffffffffffffffffffff163373ffffffffffffffffffffffffffffffffffffffff1614610d42576040517f5fc483c500000000000000000000000000000000000000000000000000000000815260040160405180910390fd5b600073ffffffffffffffffffffffffffffffffffffffff168173ffffffffffffffffffffffffffffffffffffffff1603610da8576040517fe6c4247b00000000000000000000000000000000000000000000000000000000815260040160405180910390fd5b80600160006101000a81548173ffffffffffffffffffffffffffffffffffffffff021916908373ffffffffffffffffffffffffffffffffffffffff16021790555050565b600081519050919050565b600082825260208201905092915050565b60005b83811015610e26578082015181840152602081019050610e0b565b60008484015250505050565b6000601f19601f8301169050919050565b6000610e4e82610dec565b610e588185610df7565b9350610e68818560208601610e08565b610e7181610e32565b840191505092915050565b60006020820190508181036000830152610e968184610e43565b905092915050565b600080fd5b600073ffffffffffffffffffffffffffffffffffffffff82169050919050565b6000610ece82610ea3565b9050919050565b610ede81610ec3565b8114610ee957600080fd5b50565b600081359050610efb81610ed5565b92915050565b6000819050919050565b610f1481610f01565b8114610f1f57600080fd5b50565b600081359050610f3181610f0b565b92915050565b60008060408385031215610f4e57610f4d610e9e565b5b6000610f5c85828601610eec565b9250506020610f6d85828601610f22565b9150509250929050565b60008115159050919050565b610f8c81610f77565b82525050565b6000602082019050610fa76000830184610f83565b92915050565b610fb681610f01565b82525050565b6000602082019050610fd16000830184610fad565b92915050565b600080600060608486031215610ff057610fef610e9e565b5b6000610ffe86828701610eec565b935050602061100f86828701610eec565b925050604061102086828701610f22565b9150509250925092565b600060ff82169050919050565b6110408161102a565b82525050565b600060208201905061105b6000830184611037565b92915050565b60006020828403121561107757611076610e9e565b5b600061108584828501610eec565b91505092915050565b61109781610ec3565b82525050565b60006020820190506110b2600083018461108e565b92915050565b600080604083850312156110cf576110ce610e9e565b5b60006110dd85828601610eec565b92505060206110ee85828601610eec565b9150509250929050565b7f4e487b7100000000000000000000000000000000000000000000000000000000600052601160045260246000fd5b600061113282610f01565b915061113d83610f01565b9250828203905081811115611155576111546110f8565b5b92915050565b600061116682610f01565b915061117183610f01565b9250828201905080821115611189576111886110f8565b5b92915050565b7f546f6b656e413a206275726e206e6f7420696d706c656d656e74656400000000600082015250565b60006111c5601c83610df7565b91506111d08261118f565b602082019050919050565b600060208201905081810360008301526111f4816111b8565b905091905056fea2646970667358221220851731c137c92210cde4ddf4b059e4eba15488cdfd6dd9a6760e3a4ff8d8251b64736f6c634300081c00336080604052348015600f57600080fd5b5033600160006101000a81548173ffffffffffffffffffffffffffffffffffffffff021916908373ffffffffffffffffffffffffffffffffffffffff16021790555061148c806100606000396000f3fe608060405234801561001057600080fd5b50600436106100ea5760003560e01c80638da5cb5b1161008c5780639dd373b9116100665780639dd373b91461024d578063a9059cbb14610269578063dd62ed3e14610299578063ee99205c146102c9576100ea565b80638da5cb5b146101f557806395d89b41146102135780639dc29fac14610231576100ea565b806323b872dd116100c857806323b872dd1461015b578063313ce5671461018b57806340c10f19146101a957806370a08231146101c5576100ea565b806306fdde03146100ef578063095ea7b31461010d57806318160ddd1461013d575b600080fd5b6100f76102e7565b6040516101049190611143565b60405180910390f35b610127600480360381019061012291906111fe565b610320565b6040516101349190611259565b60405180910390f35b610145610477565b6040516101529190611283565b60405180910390f35b6101756004803603810190610170919061129e565b610480565b6040516101829190611259565b60405180910390f35b6101936107c5565b6040516101a0919061130d565b60405180910390f35b6101c360048036038101906101be91906111fe565b6107ca565b005b6101df60048036038101906101da9190611328565b61098f565b6040516101ec9190611283565b60405180910390f35b6101fd6109d8565b60405161020a9190611364565b60405180910390f35b61021b6109fe565b6040516102289190611143565b60405180910390f35b61024b600480360381019061024691906111fe565b610a37565b005b61026760048036038101906102629190611328565b610c0f565b005b610283600480360381019061027e91906111fe565b610e0b565b6040516102909190611259565b60405180910390f35b6102b360048036038101906102ae919061137f565b611006565b6040516102c09190611283565b60405180910390f35b6102d161108d565b6040516102de9190611364565b60405180910390f35b6040518060400160405280600e81526020017f52657761726420546f6b656e204200000000000000000000000000000000000081525081565b60008073ffffffffffffffffffffffffffffffffffffffff168373ffffffffffffffffffffffffffffffffffffffff1603610387576040517fe6c4247b00000000000000000000000000000000000000000000000000000000815260040160405180910390fd5b81600460003373ffffffffffffffffffffffffffffffffffffffff1673ffffffffffffffffffffffffffffffffffffffff16815260200190815260200160002060008573ffffffffffffffffffffffffffffffffffffffff1673ffffffffffffffffffffffffffffffffffffffff168152602001908152602001600020819055508273ffffffffffffffffffffffffffffffffffffffff163373ffffffffffffffffffffffffffffffffffffffff167f8c5be1e5ebec7d5bd14f71427d1e84f3dd0314c0f7b2291e5b200ac8c7c3b925846040516104659190611283565b60405180910390a36001905092915050565b60008054905090565b60008073ffffffffffffffffffffffffffffffffffffffff168373ffffffffffffffffffffffffffffffffffffffff16036104e7576040517fe6c4247b00000000000000000000000000000000000000000000000000000000815260040160405180910390fd5b81600360008673ffffffffffffffffffffffffffffffffffffffff1673ffffffffffffffffffffffffffffffffffffffff168152602001908152602001600020541015610560576040517ff4d678b800000000000000000000000000000000000000000000000000000000815260040160405180910390fd5b81600460008673ffffffffffffffffffffffffffffffffffffffff1673ffffffffffffffffffffffffffffffffffffffff16815260200190815260200160002060003373ffffffffffffffffffffffffffffffffffffffff1673ffffffffffffffffffffffffffffffffffffffff168152602001908152602001600020541015610616576040517f13be252b00000000000000000000000000000000000000000000000000000000815260040160405180910390fd5b81600360008673ffffffffffffffffffffffffffffffffffffffff1673ffffffffffffffffffffffffffffffffffffffff168152602001908152602001600020600082825461066591906113ee565b9250508190555081600360008573ffffffffffffffffffffffffffffffffffffffff1673ffffffffffffffffffffffffffffffffffffffff16815260200190815260200160002060008282546106bb9190611422565b9250508190555081600460008673ffffffffffffffffffffffffffffffffffffffff1673ffffffffffffffffffffffffffffffffffffffff16815260200190815260200160002060003373ffffffffffffffffffffffffffffffffffffffff1673ffffffffffffffffffffffffffffffffffffffff168152602001908152602001600020600082825461074e91906113ee565b925050819055508273ffffffffffffffffffffffffffffffffffffffff168473ffffffffffffffffffffffffffffffffffffffff167fddf252ad1be2c89b69c2b068fc378daa952ba7f163c4a11628f55a4df523b3ef846040516107b29190611283565b60405180910390a3600190509392505050565b601281565b600260009054906101000a900473ffffffffffffffffffffffffffffffffffffffff1673ffffffffffffffffffffffffffffffffffffffff163373ffffffffffffffffffffffffffffffffffffffff1614610851576040517fd807afce00000000000000000000000000000000000000000000000000000000815260040160405180910390fd5b600073ffffffffffffffffffffffffffffffffffffffff168273ffffffffffffffffffffffffffffffffffffffff16036108b7576040517fe6c4247b00000000000000000000000000000000000000000000000000000000815260040160405180910390fd5b806000808282546108c89190611422565b9250508190555080600360008473ffffffffffffffffffffffffffffffffffffffff1673ffffffffffffffffffffffffffffffffffffffff168152602001908152602001600020600082825461091e9190611422565b925050819055508173ffffffffffffffffffffffffffffffffffffffff16600073ffffffffffffffffffffffffffffffffffffffff167fddf252ad1be2c89b69c2b068fc378daa952ba7f163c4a11628f55a4df523b3ef836040516109839190611283565b60405180910390a35050565b6000600360008373ffffffffffffffffffffffffffffffffffffffff1673ffffffffffffffffffffffffffffffffffffffff168152602001908152602001600020549050919050565b600160009054906101000a900473ffffffffffffffffffffffffffffffffffffffff1681565b6040518060400160405280600481526020017f52544b420000000000000000000000000000000000000000000000000000000081525081565b600260009054906101000a900473ffffffffffffffffffffffffffffffffffffffff1673ffffffffffffffffffffffffffffffffffffffff163373ffffffffffffffffffffffffffffffffffffffff1614610abe576040517fd807afce00000000000000000000000000000000000000000000000000000000815260040160405180910390fd5b80600360008473ffffffffffffffffffffffffffffffffffffffff1673ffffffffffffffffffffffffffffffffffffffff168152602001908152602001600020541015610b37576040517ff4d678b800000000000000000000000000000000000000000000000000000000815260040160405180910390fd5b80600360008473ffffffffffffffffffffffffffffffffffffffff1673ffffffffffffffffffffffffffffffffffffffff1681526020019081526020016000206000828254610b8691906113ee565b9250508190555080600080828254610b9e91906113ee565b92505081905550600073ffffffffffffffffffffffffffffffffffffffff168273ffffffffffffffffffffffffffffffffffffffff167fddf252ad1be2c89b69c2b068fc378daa952ba7f163c4a11628f55a4df523b3ef83604051610c039190611283565b60405180910390a35050565b600160009054906101000a900473ffffffffffffffffffffffffffffffffffffffff1673ffffffffffffffffffffffffffffffffffffffff163373ffffffffffffffffffffffffffffffffffffffff1614610c96576040517f5fc483c500000000000000000000000000000000000000000000000000000000815260040160405180910390fd5b600073ffffffffffffffffffffffffffffffffffffffff168173ffffffffffffffffffffffffffffffffffffffff1603610cfc576040517fe6c4247b00000000000000000000000000000000000000000000000000000000815260040160405180910390fd5b600073ffffffffffffffffffffffffffffffffffffffff16600260009054906101000a900473ffffffffffffffffffffffffffffffffffffffff1673ffffffffffffffffffffffffffffffffffffffff1614610d84576040517f930af15f00000000000000000000000000000000000000000000000000000000815260040160405180910390fd5b80600260006101000a81548173ffffffffffffffffffffffffffffffffffffffff021916908373ffffffffffffffffffffffffffffffffffffffff1602179055508073ffffffffffffffffffffffffffffffffffffffff167f1253844b0fff3da7dd2829de816c9b4f94c238cf2bf6eb72c02c7d6f2b53beac60405160405180910390a250565b60008073ffffffffffffffffffffffffffffffffffffffff168373ffffffffffffffffffffffffffffffffffffffff1603610e72576040517fe6c4247b00000000000000000000000000000000000000000000000000000000815260040160405180910390fd5b81600360003373ffffffffffffffffffffffffffffffffffffffff1673ffffffffffffffffffffffffffffffffffffffff168152602001908152602001600020541015610eeb576040517ff4d678b800000000000000000000000000000000000000000000000000000000815260040160405180910390fd5b81600360003373ffffffffffffffffffffffffffffffffffffffff1673ffffffffffffffffffffffffffffffffffffffff1681526020019081526020016000206000828254610f3a91906113ee565b9250508190555081600360008573ffffffffffffffffffffffffffffffffffffffff1673ffffffffffffffffffffffffffffffffffffffff1681526020019081526020016000206000828254610f909190611422565b925050819055508273ffffffffffffffffffffffffffffffffffffffff163373ffffffffffffffffffffffffffffffffffffffff167fddf252ad1be2c89b69c2b068fc378daa952ba7f163c4a11628f55a4df523b3ef84604051610ff49190611283565b60405180910390a36001905092915050565b6000600460008473ffffffffffffffffffffffffffffffffffffffff1673ffffffffffffffffffffffffffffffffffffffff16815260200190815260200160002060008373ffffffffffffffffffffffffffffffffffffffff1673ffffffffffffffffffffffffffffffffffffffff16815260200190815260200160002054905092915050565b600260009054906101000a900473ffffffffffffffffffffffffffffffffffffffff1681565b600081519050919050565b600082825260208201905092915050565b60005b838110156110ed5780820151818401526020810190506110d2565b60008484015250505050565b6000601f19601f8301169050919050565b6000611115826110b3565b61111f81856110be565b935061112f8185602086016110cf565b611138816110f9565b840191505092915050565b6000602082019050818103600083015261115d818461110a565b905092915050565b600080fd5b600073ffffffffffffffffffffffffffffffffffffffff82169050919050565b60006111958261116a565b9050919050565b6111a58161118a565b81146111b057600080fd5b50565b6000813590506111c28161119c565b92915050565b6000819050919050565b6111db816111c8565b81146111e657600080fd5b50565b6000813590506111f8816111d2565b92915050565b6000806040838503121561121557611214611165565b5b6000611223858286016111b3565b9250506020611234858286016111e9565b9150509250929050565b60008115159050919050565b6112538161123e565b82525050565b600060208201905061126e600083018461124a565b92915050565b61127d816111c8565b82525050565b60006020820190506112986000830184611274565b92915050565b6000806000606084860312156112b7576112b6611165565b5b60006112c5868287016111b3565b93505060206112d6868287016111b3565b92505060406112e7868287016111e9565b9150509250925092565b600060ff82169050919050565b611307816112f1565b82525050565b600060208201905061132260008301846112fe565b92915050565b60006020828403121561133e5761133d611165565b5b600061134c848285016111b3565b91505092915050565b61135e8161118a565b82525050565b60006020820190506113796000830184611355565b92915050565b6000806040838503121561139657611395611165565b5b60006113a4858286016111b3565b92505060206113b5858286016111b3565b9150509250929050565b7f4e487b7100000000000000000000000000000000000000000000000000000000600052601160045260246000fd5b60006113f9826111c8565b9150611404836111c8565b925082820390508181111561141c5761141b6113bf565b5b92915050565b600061142d826111c8565b9150611438836111c8565b92508282019050808211156114505761144f6113bf565b5b9291505056fea2646970667358221220ab8d39b704f712494549d34a1cefdbf59af309dd5a34b7e4ba705c06b07904d464736f6c634300081c0033608060405234801561001057600080fd5b50604051611c5b380380611c5b83398181016040528101906100329190610274565b600073ffffffffffffffffffffffffffffffffffffffff168373ffffffffffffffffffffffffffffffffffffffff1614806100995750600073ffffffffffffffffffffffffffffffffffffffff168273ffffffffffffffffffffffffffffffffffffffff16145b156100d0576040517fe6c4247b00000000000000000000000000000000000000000000000000000000815260040160405180910390fd5b6000810361010a576040517f2a82a34f00000000000000000000000000000000000000000000000000000000815260040160405180910390fd5b336000806101000a81548173ffffffffffffffffffffffffffffffffffffffff021916908373ffffffffffffffffffffffffffffffffffffffff16021790555082600160006101000a81548173ffffffffffffffffffffffffffffffffffffffff021916908373ffffffffffffffffffffffffffffffffffffffff16021790555081600260006101000a81548173ffffffffffffffffffffffffffffffffffffffff021916908373ffffffffffffffffffffffffffffffffffffffff160217905550806003819055505050506102c7565b600080fd5b600073ffffffffffffffffffffffffffffffffffffffff82169050919050565b600061020b826101e0565b9050919050565b61021b81610200565b811461022657600080fd5b50565b60008151905061023881610212565b92915050565b6000819050919050565b6102518161023e565b811461025c57600080fd5b50565b60008151905061026e81610248565b92915050565b60008060006060848603121561028d5761028c6101db565b5b600061029b86828701610229565b93505060206102ac86828701610229565b92505060406102bd8682870161025f565b9150509250925092565b611985806102d66000396000f3fe608060405234801561001057600080fd5b506004361061010b5760003560e01c806347304494116100a2578063817b1cd211610071578063817b1cd2146102bd5780638da5cb5b146102db5780639639011e146102f9578063a694fc3a14610315578063c3453153146103315761010b565b8063473044941461021e5780635f64b55b1461024e5780636bf807fc1461026c5780637cc1f8671461029c5761010b565b80632bbf532a116100de5780632bbf532a146101aa5780632e17de78146101da578063372500ab146101f65780633fd8b02f146102005761010b565b80630700037d146101105780630fc63d1014610140578063143ba4f31461015e57806316934fc41461017a575b600080fd5b61012a60048036038101906101259190611410565b610362565b6040516101379190611456565b60405180910390f35b61014861037a565b60405161015591906114d0565b60405180910390f35b610178600480360381019061017391906115a6565b6103a0565b005b610194600480360381019061018f9190611410565b6105aa565b6040516101a19190611456565b60405180910390f35b6101c460048036038101906101bf9190611410565b6105c2565b6040516101d19190611642565b60405180910390f35b6101f460048036038101906101ef9190611689565b610659565b005b6101fe610b0c565b005b610208610c20565b6040516102159190611456565b60405180910390f35b61023860048036038101906102339190611410565b610c26565b6040516102459190611456565b60405180910390f35b610256610d16565b60405161026391906114d0565b60405180910390f35b61028660048036038101906102819190611410565b610d3c565b6040516102939190611456565b60405180910390f35b6102a4610d54565b6040516102b494939291906116c5565b60405180910390f35b6102c5610db4565b6040516102d29190611456565b60405180910390f35b6102e3610dba565b6040516102f0919061170a565b60405180910390f35b610313600480360381019061030e9190611725565b610dde565b005b61032f600480360381019061032a9190611689565b610f06565b005b61034b60048036038101906103469190611410565b61131c565b604051610359929190611765565b60405180910390f35b60056020528060005260406000206000915090505481565b600160009054906101000a900473ffffffffffffffffffffffffffffffffffffffff1681565b60008054906101000a900473ffffffffffffffffffffffffffffffffffffffff1673ffffffffffffffffffffffffffffffffffffffff163373ffffffffffffffffffffffffffffffffffffffff1614610425576040517f5fc483c500000000000000000000000000000000000000000000000000000000815260040160405180910390fd5b818190508484905014610464576040517fa0b1d72d00000000000000000000000000000000000000000000000000000000815260040160405180910390fd5b60005b848490508110156105a3578282828181106104855761048461178e565b5b90506020020135600560008787858181106104a3576104a261178e565b5b90506020020160208101906104b89190611410565b73ffffffffffffffffffffffffffffffffffffffff1673ffffffffffffffffffffffffffffffffffffffff168152602001908152602001600020600082825461050191906117ec565b9250508190555084848281811061051b5761051a61178e565b5b90506020020160208101906105309190611410565b73ffffffffffffffffffffffffffffffffffffffff167fe2403640ba68fed3a2f88b7557551d1993f84b99bb10ff833f0cf8db0c5e048684848481811061057a5761057961178e565b5b9050602002013560405161058e9190611456565b60405180910390a28080600101915050610467565b5050505050565b60046020528060005260406000206000915090505481565b6000600660008373ffffffffffffffffffffffffffffffffffffffff1673ffffffffffffffffffffffffffffffffffffffff16815260200190815260200160002054421015801561065257506000600460008473ffffffffffffffffffffffffffffffffffffffff1673ffffffffffffffffffffffffffffffffffffffff16815260200190815260200160002054115b9050919050565b60008103610693576040517f1f2a200500000000000000000000000000000000000000000000000000000000815260040160405180910390fd5b80600460003373ffffffffffffffffffffffffffffffffffffffff1673ffffffffffffffffffffffffffffffffffffffff16815260200190815260200160002054101561070c576040517ff1bc94d200000000000000000000000000000000000000000000000000000000815260040160405180910390fd5b600660003373ffffffffffffffffffffffffffffffffffffffff1673ffffffffffffffffffffffffffffffffffffffff16815260200190815260200160002054421015610785576040517f14d10a0200000000000000000000000000000000000000000000000000000000815260040160405180910390fd5b80600260009054906101000a900473ffffffffffffffffffffffffffffffffffffffff1673ffffffffffffffffffffffffffffffffffffffff166370a08231336040518263ffffffff1660e01b81526004016107e1919061170a565b602060405180830381865afa1580156107fe573d6000803e3d6000fd5b505050506040513d601f19601f820116820180604052508101906108229190611835565b101561085a576040517ff4d678b800000000000000000000000000000000000000000000000000000000815260040160405180910390fd5b80600460003373ffffffffffffffffffffffffffffffffffffffff1673ffffffffffffffffffffffffffffffffffffffff16815260200190815260200160002060008282546108a99190611862565b9250508190555080600760008282546108c29190611862565b925050819055506000600460003373ffffffffffffffffffffffffffffffffffffffff1673ffffffffffffffffffffffffffffffffffffffff1681526020019081526020016000205403610956576000600660003373ffffffffffffffffffffffffffffffffffffffff1673ffffffffffffffffffffffffffffffffffffffff168152602001908152602001600020819055505b600260009054906101000a900473ffffffffffffffffffffffffffffffffffffffff1673ffffffffffffffffffffffffffffffffffffffff16639dc29fac33836040518363ffffffff1660e01b81526004016109b3929190611896565b600060405180830381600087803b1580156109cd57600080fd5b505af11580156109e1573d6000803e3d6000fd5b50505050600160009054906101000a900473ffffffffffffffffffffffffffffffffffffffff1673ffffffffffffffffffffffffffffffffffffffff1663a9059cbb33836040518363ffffffff1660e01b8152600401610a42929190611896565b6020604051808303816000875af1158015610a61573d6000803e3d6000fd5b505050506040513d601f19601f82011682018060405250810190610a8591906118eb565b610abb576040517f90b8ec1800000000000000000000000000000000000000000000000000000000815260040160405180910390fd5b3373ffffffffffffffffffffffffffffffffffffffff167f0f5bb82176feb1b5e747e28471aa92156a04d9f3ab9f45f28e2d704232b93f7582604051610b019190611456565b60405180910390a250565b6000600560003373ffffffffffffffffffffffffffffffffffffffff1673ffffffffffffffffffffffffffffffffffffffff16815260200190815260200160002054905060008103610b8a576040517f73380d9900000000000000000000000000000000000000000000000000000000815260040160405180910390fd5b6000600560003373ffffffffffffffffffffffffffffffffffffffff1673ffffffffffffffffffffffffffffffffffffffff168152602001908152602001600020819055503373ffffffffffffffffffffffffffffffffffffffff167fe2403640ba68fed3a2f88b7557551d1993f84b99bb10ff833f0cf8db0c5e048682604051610c159190611456565b60405180910390a250565b60035481565b6000600660008373ffffffffffffffffffffffffffffffffffffffff1673ffffffffffffffffffffffffffffffffffffffff1681526020019081526020016000205442101580610cb557506000600460008473ffffffffffffffffffffffffffffffffffffffff1673ffffffffffffffffffffffffffffffffffffffff16815260200190815260200160002054145b15610cc35760009050610d11565b42600660008473ffffffffffffffffffffffffffffffffffffffff1673ffffffffffffffffffffffffffffffffffffffff16815260200190815260200160002054610d0e9190611862565b90505b919050565b600260009054906101000a900473ffffffffffffffffffffffffffffffffffffffff1681565b60066020528060005260406000206000915090505481565b600080600080600160009054906101000a900473ffffffffffffffffffffffffffffffffffffffff16600260009054906101000a900473ffffffffffffffffffffffffffffffffffffffff16600354600754935093509350935090919293565b60075481565b60008054906101000a900473ffffffffffffffffffffffffffffffffffffffff1681565b60008054906101000a900473ffffffffffffffffffffffffffffffffffffffff1673ffffffffffffffffffffffffffffffffffffffff163373ffffffffffffffffffffffffffffffffffffffff1614610e63576040517f5fc483c500000000000000000000000000000000000000000000000000000000815260040160405180910390fd5b8173ffffffffffffffffffffffffffffffffffffffff1663a9059cbb60008054906101000a900473ffffffffffffffffffffffffffffffffffffffff16836040518363ffffffff1660e01b8152600401610ebe929190611896565b6020604051808303816000875af1158015610edd573d6000803e3d6000fd5b505050506040513d601f19601f82011682018060405250810190610f0191906118eb565b505050565b60008103610f40576040517f1f2a200500000000000000000000000000000000000000000000000000000000815260040160405180910390fd5b80600160009054906101000a900473ffffffffffffffffffffffffffffffffffffffff1673ffffffffffffffffffffffffffffffffffffffff166370a08231336040518263ffffffff1660e01b8152600401610f9c919061170a565b602060405180830381865afa158015610fb9573d6000803e3d6000fd5b505050506040513d601f19601f82011682018060405250810190610fdd9190611835565b1015611015576040517ff4d678b800000000000000000000000000000000000000000000000000000000815260040160405180910390fd5b600160009054906101000a900473ffffffffffffffffffffffffffffffffffffffff1673ffffffffffffffffffffffffffffffffffffffff166323b872dd3330846040518463ffffffff1660e01b815260040161107493929190611918565b6020604051808303816000875af1158015611093573d6000803e3d6000fd5b505050506040513d601f19601f820116820180604052508101906110b791906118eb565b6110ed576040517f90b8ec1800000000000000000000000000000000000000000000000000000000815260040160405180910390fd5b80600460003373ffffffffffffffffffffffffffffffffffffffff1673ffffffffffffffffffffffffffffffffffffffff168152602001908152602001600020600082825461113c91906117ec565b92505081905550806007600082825461115591906117ec565b925050819055506003544261116a91906117ec565b600660003373ffffffffffffffffffffffffffffffffffffffff1673ffffffffffffffffffffffffffffffffffffffff16815260200190815260200160002081905550600260009054906101000a900473ffffffffffffffffffffffffffffffffffffffff1673ffffffffffffffffffffffffffffffffffffffff166340c10f1933836040518363ffffffff1660e01b815260040161120a929190611896565b600060405180830381600087803b15801561122457600080fd5b505af1158015611238573d6000803e3d6000fd5b505050503373ffffffffffffffffffffffffffffffffffffffff167f9e71bc8eea02a63969f509818f2dafb9254532904319f9dbda79b67bd34a5f3d826040516112829190611456565b60405180910390a23373ffffffffffffffffffffffffffffffffffffffff167fca8f7b7916f133917db8d4b2e3566194ad8a65ad8eda78f72f5b9872c059227b82600660003373ffffffffffffffffffffffffffffffffffffffff1673ffffffffffffffffffffffffffffffffffffffff16815260200190815260200160002054604051611311929190611765565b60405180910390a250565b600080600460008473ffffffffffffffffffffffffffffffffffffffff1673ffffffffffffffffffffffffffffffffffffffff16815260200190815260200160002054600660008573ffffffffffffffffffffffffffffffffffffffff1673ffffffffffffffffffffffffffffffffffffffff1681526020019081526020016000205491509150915091565b600080fd5b600080fd5b600073ffffffffffffffffffffffffffffffffffffffff82169050919050565b60006113dd826113b2565b9050919050565b6113ed816113d2565b81146113f857600080fd5b50565b60008135905061140a816113e4565b92915050565b600060208284031215611426576114256113a8565b5b6000611434848285016113fb565b91505092915050565b6000819050919050565b6114508161143d565b82525050565b600060208201905061146b6000830184611447565b92915050565b6000819050919050565b600061149661149161148c846113b2565b611471565b6113b2565b9050919050565b60006114a88261147b565b9050919050565b60006114ba8261149d565b9050919050565b6114ca816114af565b82525050565b60006020820190506114e560008301846114c1565b92915050565b600080fd5b600080fd5b600080fd5b60008083601f8401126115105761150f6114eb565b5b8235905067ffffffffffffffff81111561152d5761152c6114f0565b5b602083019150836020820283011115611549576115486114f5565b5b9250929050565b60008083601f840112611566576115656114eb565b5b8235905067ffffffffffffffff811115611583576115826114f0565b5b60208301915083602082028301111561159f5761159e6114f5565b5b9250929050565b600080600080604085870312156115c0576115bf6113a8565b5b600085013567ffffffffffffffff8111156115de576115dd6113ad565b5b6115ea878288016114fa565b9450945050602085013567ffffffffffffffff81111561160d5761160c6113ad565b5b61161987828801611550565b925092505092959194509250565b60008115159050919050565b61163c81611627565b82525050565b60006020820190506116576000830184611633565b92915050565b6116668161143d565b811461167157600080fd5b50565b6000813590506116838161165d565b92915050565b60006020828403121561169f5761169e6113a8565b5b60006116ad84828501611674565b91505092915050565b6116bf816113d2565b82525050565b60006080820190506116da60008301876116b6565b6116e760208301866116b6565b6116f46040830185611447565b6117016060830184611447565b95945050505050565b600060208201905061171f60008301846116b6565b92915050565b6000806040838503121561173c5761173b6113a8565b5b600061174a858286016113fb565b925050602061175b85828601611674565b9150509250929050565b600060408201905061177a6000830185611447565b6117876020830184611447565b9392505050565b7f4e487b7100000000000000000000000000000000000000000000000000000000600052603260045260246000fd5b7f4e487b7100000000000000000000000000000000000000000000000000000000600052601160045260246000fd5b60006117f78261143d565b91506118028361143d565b925082820190508082111561181a576118196117bd565b5b92915050565b60008151905061182f8161165d565b92915050565b60006020828403121561184b5761184a6113a8565b5b600061185984828501611820565b91505092915050565b600061186d8261143d565b91506118788361143d565b92508282039050818111156118905761188f6117bd565b5b92915050565b60006040820190506118ab60008301856116b6565b6118b86020830184611447565b9392505050565b6118c881611627565b81146118d357600080fd5b50565b6000815190506118e5816118bf565b92915050565b600060208284031215611901576119006113a8565b5b600061190f848285016118d6565b91505092915050565b600060608201905061192d60008301866116b6565b61193a60208301856116b6565b6119476040830184611447565b94935050505056fea2646970667358221220c33500ca3b21f3393e10e1ad0c289afb9f0a3fff43e54eef6e86b5327574810164736f6c634300081c0033a2646970667358221220cd94628a29c0d8d6e70eaadfaace6adab09b106775436841e195d5294e00f08064736f6c634300081c0033",
  "linkReferences": {},
  "deployedLinkReferences": {}
}