{"abi":[{"type":"constructor","inputs":[],"stateMutability":"nonpayable"},{"type":"function","name":"getAmountOut","inputs":[{"name":"tokenIn","type":"address","internalType":"address"},{"name":"tokenOut","type":"address","internalType":"address"},{"name":"amountIn","type":"uint256","internalType":"uint256"}],"outputs":[{"name":"amountOut","type":"uint256","internalType":"uint256"}],"stateMutability":"view"},{"type":"function","name":"getRouterAddress","inputs":[],"outputs":[{"name":"","type":"address","internalType":"address"}],"stateMutability":"view"},{"type":"function","name":"swapWithPermit","inputs":[{"name":"tokenIn","type":"address","internalType":"address"},{"name":"tokenOut","type":"address","internalType":"address"},{"name":"amountIn","type":"uint256","internalType":"uint256"},{"name":"amountOutMin","type":"uint256","internalType":"uint256"},{"name":"deadline","type":"uint256","internalType":"uint256"},{"name":"v","type":"uint8","internalType":"uint8"},{"name":"r","type":"bytes32","internalType":"bytes32"},{"name":"s","type":"bytes32","internalType":"bytes32"}],"outputs":[{"name":"amountOut","type":"uint256","internalType":"uint256"}],"stateMutability":"nonpayable"},{"type":"function","name":"swapWithPermitOnBehalf","inputs":[{"name":"user","type":"address","internalType":"address"},{"name":"tokenIn","type":"address","internalType":"address"},{"name":"tokenOut","type":"address","internalType":"address"},{"name":"amountIn","type":"uint256","internalType":"uint256"},{"name":"amountOutMin","type":"uint256","internalType":"uint256"},{"name":"deadline","type":"uint256","internalType":"uint256"},{"name":"v","type":"uint8","internalType":"uint8"},{"name":"r","type":"bytes32","internalType":"bytes32"},{"name":"s","type":"bytes32","internalType":"bytes32"}],"outputs":[{"name":"amountOut","type":"uint256","internalType":"uint256"}],"stateMutability":"nonpayable"},{"type":"function","name":"uniswapRouter","inputs":[],"outputs":[{"name":"","type":"address","internalType":"contract IUniswapV2Router02"}],"stateMutability":"view"},{"type":"event","name":"PermitSwap","inputs":[{"name":"user","type":"address","indexed":true,"internalType":"address"},{"name":"tokenIn","type":"address","indexed":true,"internalType":"address"},{"name":"tokenOut","type":"address","indexed":true,"internalType":"address"},{"name":"amountIn","type":"uint256","indexed":false,"internalType":"uint256"},{"name":"amountOut","type":"uint256","indexed":false,"internalType":"uint256"}],"anonymous":false}],"bytecode":{"object":"0x60a060405234801561000f575f5ffd5b50737a250d5630b4cf539739df2c5dacb4c659f2488d73ffffffffffffffffffffffffffffffffffffffff1660808173ffffffffffffffffffffffffffffffffffffffff168152505060805161108f61008c5f395f818161029a015281816103e60152818161040b0152818161055d0152610770015261108f5ff3fe608060405234801561000f575f5ffd5b5060043610610055575f3560e01c8063429ac8f9146100595780634aa06652146100895780634afc13de146100b9578063735de9f7146100e9578063d54f7d5e14610107575b5f5ffd5b610073600480360381019061006e919061094d565b610125565b6040516100809190610a20565b60405180910390f35b6100a3600480360381019061009e9190610a39565b6101ac565b6040516100b09190610a20565b60405180910390f35b6100d360048036038101906100ce9190610a89565b61035e565b6040516100e09190610a20565b60405180910390f35b6100f16103e4565b6040516100fe9190610b95565b60405180910390f35b61010f610408565b60405161011c9190610bbd565b60405180910390f35b5f5f6040518061010001604052808b73ffffffffffffffffffffffffffffffffffffffff1681526020018a73ffffffffffffffffffffffffffffffffffffffff1681526020018981526020018881526020018781526020018660ff16815260200185815260200184815250905061019c8b8261042f565b9150509998505050505050505050565b5f5f600267ffffffffffffffff8111156101c9576101c8610bd6565b5b6040519080825280602002602001820160405280156101f75781602001602082028036833780820191505090505b50905084815f8151811061020e5761020d610c03565b5b602002602001019073ffffffffffffffffffffffffffffffffffffffff16908173ffffffffffffffffffffffffffffffffffffffff1681525050838160018151811061025d5761025c610c03565b5b602002602001019073ffffffffffffffffffffffffffffffffffffffff16908173ffffffffffffffffffffffffffffffffffffffff16815250505f7f000000000000000000000000000000000000000000000000000000000000000073ffffffffffffffffffffffffffffffffffffffff1663d06ca61f85846040518363ffffffff1660e01b81526004016102f3929190610ce7565b5f60405180830381865afa15801561030d573d5f5f3e3d5ffd5b505050506040513d5f823e3d601f19601f820116820180604052508101906103359190610e4c565b90508060018151811061034b5761034a610c03565b5b6020026020010151925050509392505050565b5f5f6040518061010001604052808b73ffffffffffffffffffffffffffffffffffffffff1681526020018a73ffffffffffffffffffffffffffffffffffffffff1681526020018981526020018881526020018781526020018660ff1681526020018581526020018481525090506103d5338261042f565b91505098975050505050505050565b7f000000000000000000000000000000000000000000000000000000000000000081565b5f7f0000000000000000000000000000000000000000000000000000000000000000905090565b5f5f825f015190508073ffffffffffffffffffffffffffffffffffffffff1663d505accf8530866040015187608001518860a001518960c001518a60e001516040518863ffffffff1660e01b81526004016104909796959493929190610eb1565b5f604051808303815f87803b1580156104a7575f5ffd5b505af11580156104b9573d5f5f3e3d5ffd5b505050508073ffffffffffffffffffffffffffffffffffffffff166323b872dd853086604001516040518463ffffffff1660e01b81526004016104fe93929190610f1e565b6020604051808303815f875af115801561051a573d5f5f3e3d5ffd5b505050506040513d601f19601f8201168201806040525081019061053e9190610f88565b508073ffffffffffffffffffffffffffffffffffffffff1663095ea7b37f000000000000000000000000000000000000000000000000000000000000000085604001516040518363ffffffff1660e01b815260040161059e929190610fb3565b6020604051808303815f875af11580156105ba573d5f5f3e3d5ffd5b505050506040513d601f19601f820116820180604052508101906105de9190610f88565b506105e9848461067b565b9150826020015173ffffffffffffffffffffffffffffffffffffffff16835f015173ffffffffffffffffffffffffffffffffffffffff168573ffffffffffffffffffffffffffffffffffffffff167fbefd24a86f3cbf99d5ea9bae42f388f3e1f571c3f6538c688e6842de36190b5e86604001518660405161066c929190610fda565b60405180910390a45092915050565b5f5f600267ffffffffffffffff81111561069857610697610bd6565b5b6040519080825280602002602001820160405280156106c65781602001602082028036833780820191505090505b509050825f0151815f815181106106e0576106df610c03565b5b602002602001019073ffffffffffffffffffffffffffffffffffffffff16908173ffffffffffffffffffffffffffffffffffffffff168152505082602001518160018151811061073357610732610c03565b5b602002602001019073ffffffffffffffffffffffffffffffffffffffff16908173ffffffffffffffffffffffffffffffffffffffff16815250505f7f000000000000000000000000000000000000000000000000000000000000000073ffffffffffffffffffffffffffffffffffffffff166338ed173985604001518660600151858989608001516040518663ffffffff1660e01b81526004016107db959493929190611001565b5f604051808303815f875af11580156107f6573d5f5f3e3d5ffd5b505050506040513d5f823e3d601f19601f8201168201806040525081019061081e9190610e4c565b90508060018151811061083457610833610c03565b5b60200260200101519250505092915050565b5f604051905090565b5f5ffd5b5f5ffd5b5f73ffffffffffffffffffffffffffffffffffffffff82169050919050565b5f61088082610857565b9050919050565b61089081610876565b811461089a575f5ffd5b50565b5f813590506108ab81610887565b92915050565b5f819050919050565b6108c3816108b1565b81146108cd575f5ffd5b50565b5f813590506108de816108ba565b92915050565b5f60ff82169050919050565b6108f9816108e4565b8114610903575f5ffd5b50565b5f81359050610914816108f0565b92915050565b5f819050919050565b61092c8161091a565b8114610936575f5ffd5b50565b5f8135905061094781610923565b92915050565b5f5f5f5f5f5f5f5f5f6101208a8c03121561096b5761096a61084f565b5b5f6109788c828d0161089d565b99505060206109898c828d0161089d565b985050604061099a8c828d0161089d565b97505060606109ab8c828d016108d0565b96505060806109bc8c828d016108d0565b95505060a06109cd8c828d016108d0565b94505060c06109de8c828d01610906565b93505060e06109ef8c828d01610939565b925050610100610a018c828d01610939565b9150509295985092959850929598565b610a1a816108b1565b82525050565b5f602082019050610a335f830184610a11565b92915050565b5f5f5f60608486031215610a5057610a4f61084f565b5b5f610a5d8682870161089d565b9350506020610a6e8682870161089d565b9250506040610a7f868287016108d0565b9150509250925092565b5f5f5f5f5f5f5f5f610100898b031215610aa657610aa561084f565b5b5f610ab38b828c0161089d565b9850506020610ac48b828c0161089d565b9750506040610ad58b828c016108d0565b9650506060610ae68b828c016108d0565b9550506080610af78b828c016108d0565b94505060a0610b088b828c01610906565b93505060c0610b198b828c01610939565b92505060e0610b2a8b828c01610939565b9150509295985092959890939650565b5f819050919050565b5f610b5d610b58610b5384610857565b610b3a565b610857565b9050919050565b5f610b6e82610b43565b9050919050565b5f610b7f82610b64565b9050919050565b610b8f81610b75565b82525050565b5f602082019050610ba85f830184610b86565b92915050565b610bb781610876565b82525050565b5f602082019050610bd05f830184610bae565b92915050565b7f4e487b71000000000000000000000000000000000000000000000000000000005f52604160045260245ffd5b7f4e487b71000000000000000000000000000000000000000000000000000000005f52603260045260245ffd5b5f81519050919050565b5f82825260208201905092915050565b5f819050602082019050919050565b610c6281610876565b82525050565b5f610c738383610c59565b60208301905092915050565b5f602082019050919050565b5f610c9582610c30565b610c9f8185610c3a565b9350610caa83610c4a565b805f5b83811015610cda578151610cc18882610c68565b9750610ccc83610c7f565b925050600181019050610cad565b5085935050505092915050565b5f604082019050610cfa5f830185610a11565b8181036020830152610d0c8184610c8b565b90509392505050565b5f5ffd5b5f601f19601f8301169050919050565b610d3282610d19565b810181811067ffffffffffffffff82111715610d5157610d50610bd6565b5b80604052505050565b5f610d63610846565b9050610d6f8282610d29565b919050565b5f67ffffffffffffffff821115610d8e57610d8d610bd6565b5b602082029050602081019050919050565b5f5ffd5b5f81519050610db1816108ba565b92915050565b5f610dc9610dc484610d74565b610d5a565b90508083825260208201905060208402830185811115610dec57610deb610d9f565b5b835b81811015610e155780610e018882610da3565b845260208401935050602081019050610dee565b5050509392505050565b5f82601f830112610e3357610e32610d15565b5b8151610e43848260208601610db7565b91505092915050565b5f60208284031215610e6157610e6061084f565b5b5f82015167ffffffffffffffff811115610e7e57610e7d610853565b5b610e8a84828501610e1f565b91505092915050565b610e9c816108e4565b82525050565b610eab8161091a565b82525050565b5f60e082019050610ec45f83018a610bae565b610ed16020830189610bae565b610ede6040830188610a11565b610eeb6060830187610a11565b610ef86080830186610e93565b610f0560a0830185610ea2565b610f1260c0830184610ea2565b98975050505050505050565b5f606082019050610f315f830186610bae565b610f3e6020830185610bae565b610f4b6040830184610a11565b949350505050565b5f8115159050919050565b610f6781610f53565b8114610f71575f5ffd5b50565b5f81519050610f8281610f5e565b92915050565b5f60208284031215610f9d57610f9c61084f565b5b5f610faa84828501610f74565b91505092915050565b5f604082019050610fc65f830185610bae565b610fd36020830184610a11565b9392505050565b5f604082019050610fed5f830185610a11565b610ffa6020830184610a11565b9392505050565b5f60a0820190506110145f830188610a11565b6110216020830187610a11565b81810360408301526110338186610c8b565b90506110426060830185610bae565b61104f6080830184610a11565b969550505050505056fea2646970667358221220803ea17092b72b719dd5da87b2caff500f75a3f3f4032d9058dbe5707f6a775264736f6c634300081e0033","linkReferences":{}},"methodIdentifiers":{"getAmountOut(address,address,uint256)":"4aa06652","getRouterAddress()":"d54f7d5e","swapWithPermit(address,address,uint256,uint256,uint256,uint8,bytes32,bytes32)":"4afc13de","swapWithPermitOnBehalf(address,address,address,uint256,uint256,uint256,uint8,bytes32,bytes32)":"429ac8f9","uniswapRouter()":"735de9f7"},"id":23}